:020000040800F2
:1000000000000120A1020008F5430008F7430008A2
:10001000F9430008FB430008FD430008000000000E
:10002000000000000000000000000000FF43000886
:1000300001440008000000000344000805440008D3
:1000400091380008913800081144000891380008E0
:10005000913800089138000891380008913800085C
:1000600091380008913800089138000821440008B0
:10007000913800089138000891380008913800083C
:100080009138000891380008314400089138000880
:10009000913800089138000891380008913800081C
:1000A00041440008514400086944000879440008AC
:1000B000894400080000000000000000913800089A
:1000C00091380008913800089138000891380008EC
:1000D00091380008913800089138000891380008DC
:1000E000913800089944000800000000000000005A
:1000F0000000000000000000000000000000000000
:10010000000000009138000800000000913800084D
:10011000000000000000000091380008913800083D
:10012000913800089138000891380008913800088B
:1001300091380008000000000000000000000000EE
:10014000913800089138000891380008913800086B
:10015000913800089138000891380008913800085B
:10016000913800089138000891380008000000001C
:10017000913800089138000891380008000000000C
:1001800091380008913800089138000800B583B014
:1001900003F0E4FA304B314A1360314A1360314BBB
:1001A000314A32498B4204D2116819600433043257
:1001B000F7E72A4B1A682E4B9A4200D0FEE7284BED
:1001C0001A682C4B9A42F9D1234B2B4A13602B4AC5
:1001D00013602B4B02E000221A600433294A934239
:1001E000F9D3254B1B6813B9244B1B6803B1FEE7F9
:1001F00003F0C0FA694601A803F05CFA224C234BD5
:10020000E41AA4100025AC4214DC214C214BE41A62
:10021000A4100025AC4213DC0099019803F03CFFC8
:1002200005461D4C1D4BE41AA410002C0EDC28467C
:1002300003F01DFA154B53F8253098470135E2E7D6
:10024000144B53F8253098470135E3E7013C134B35
:1002500053F824309847E8E7BABADECA0000002015
:1002600074000020000000208C520008780000205C
:1002700078563412325476987800002070030020AB
:100280007800002074030020F4030008F403000841
:10029000F4030008F4030008F4030008F403000862
:1002A00008B5FFF773FF00BEFEE71EF0040F0CBF9A
:1002B000EFF30880EFF309807146414A10472DE9BA
:1002C000F04182B004468846124B5E6B9F6B9D6A7C
:1002D0001B6B13F0020F03D00E4BDB6A002B0CDB01
:1002E0000D4803F0EFF9CDF800803B463246294631
:1002F000204603F043FA00BEFEE74BF6AB6103F085
:10030000B7FA0028ECD0034B4FF00042DA6202B09B
:10031000BDE8F08100ED00E0B051000800BEFEE74E
:100320001EF0040F0CBFEFF30880EFF30980714655
:10033000244A10472DE9F04182B004468846084B14
:100340005E6B9F6B9D6A074803F0BCF9CDF8008097
:100350003B4632462946204603F010FA00BEFEE72F
:1003600000ED00E0C05100081EF0040F0CBFEFF3D9
:100370000880EFF309807146134A10472DE9F041D8
:1003800082B004468846084B5E6B9F6B9D6A0748A7
:1003900003F098F9CDF800803B46324629462046C6
:1003A00003F0ECF900BEFEE700ED00E0CC510008E0
:1003B00000BEFEE700BEFEE700BEFEE7704700009D
:0C03C000BF020008350300087D030008A0
:1003CC008C52000800000020780000208C5200089D
:1003DC0000000010000000107800002074030020C2
:0803EC000000001000000010E9
:1004000010B50446074B1868074BA3FB0030800962
:1004100000F0DEFC002221464FF0FF3000F098FC97
:10042000002010BD0C000020D34D621008B5032041
:1004300000F07CFC0020FFF7E3FF03F045FE002006
:1004400008BD0000024A136801331360704700BF03
:100450000C010020014B1868704700BF0C01002000
:1004600030B583B000230193002800F0E4800446F7
:10047000836DE3B123689A6812F0005F03D09A6835
:1004800022F000529A6023689A6812F0805F1BD1B4
:100490009A6842F080529A60684B1B68684AA2FBD7
:1004A0000323DB0C03EB83035A00019209E003F002
:1004B00053FE0023E36584F85430DBE7019B013BE6
:1004C0000193019B002BF9D123689A6812F0805F99
:1004D0007DD1A26D42F01002A265E26D42F00102F0
:1004E000E2650120A26D12F0100F40F09D809A6825
:1004F00012F0040F40F09880A26D42F00202A26553
:100500009A6802F00302012A63D04E4A936823F4EA
:100510007C1361680B439360E3694FF4005292FAD5
:10052000A2F2B2FA82F29340A26B1343E268134341
:10053000A2681343616A4FF4803292FAA2F2B2FACF
:1005400082F201FA02F21343012947D0E26A012A3A
:1005500003D0216B09B10A4313432168CD683A4A9D
:100560002A401343CB602268936813F00C0F1FD10D
:10057000A3694FF4804191FAA1F1B1FA81F18B4066
:10058000656B022191FAA1F1B1FA81F105FA01F14D
:100590001943D36823F4804323F002030B43D36051
:1005A000E36B012B25D02268136923F0010313614B
:1005B0002369012B2FD02268136B23F00F031363E1
:1005C000A36D23F0030343F00103A36531E0002092
:1005D00088E71B6813F0010F9ED196E7A26A013AE3
:1005E0004FF4602191FAA1F1B1FA81F18A401343ED
:1005F000ACE721680B6923F4FF6323F00503226C49
:10060000656C2A43A56C2A43E56C2A43134343F0E7
:1006100001030B61CCE721680B6B23F00F03226A07
:10062000013A13430B63CBE7A36D43F01003A365BB
:10063000012003B030BD0120FBE700BF0C0000200B
:1006400083DE1B430003045007C0F0FF7047704770
:100650007047000070B5044603681D685E6815F0B9
:10066000020F10D016F0020F0DD0836D13F0100F93
:1006700003D1836D43F400638365204600F054FB8F
:10068000236802221A6015F0040F02D016F0040F3E
:1006900005D115F0080F3AD016F0080F37D0A36D2A
:1006A00013F0100F03D1A36D43F40073A365236807
:1006B000DA6812F4406F24D1DA6812F4005F20D1B6
:1006C0001A6812F0080F1CD09A6812F0040F10D1AB
:1006D0005A6822F00C025A60A36D23F48073A3655C
:1006E000A36D13F4805F0CD1A36D43F00103A365E8
:1006F00007E0A36D43F01003A365E36D43F001032E
:10070000E3652046FFF7A2FF23680C221A6015F06C
:10071000200F02D016F0200F05D115F0400F43D066
:1007200016F0400F40D0A36D13F0100F03D1A36D4E
:1007300043F40053A36523681A6812F0400F2DD0CC
:10074000D968D868DA6C12F0C00F27D111F4001FF5
:1007500024D1494A824314D09A6812F0080F15D167
:100760005A6822F060025A60A36D23F48053A36597
:10077000A36D13F4807F11D1A36D43F00103A36532
:100780000CE0DA6812F4406F08D0E5E7A36D43F09F
:100790001003A365E36D43F00103E365204600F019
:1007A000BFFA236860221A6015F0800F02D016F09D
:1007B000800F2DD115F4807F02D016F4807F32D1C6
:1007C00015F4007F02D016F4007F38D115F0100F19
:1007D00017D016F0100F14D0A36B23B12368DB6879
:1007E00013F0010F0AD0A36D43F48063A365E36D9A
:1007F00043F00203E3652046FFF72AFF2368102237
:100800001A6015F4806F02D016F4806F23D170BD8A
:10081000A36D43F48033A3652046FFF718FF2368D8
:1008200080221A60C6E7A36D43F40033A365204617
:1008300000F078FA23684FF480721A60C0E7A36D65
:1008400043F48023A365204600F06DFA23684FF43B
:1008500000721A60BAE7A36D43F48043A365E36DA9
:1008600043F00803E36523684FF480621A60204672
:1008700000F057FACBE700BF00200002F0B482B0CE
:100880000022019290F85420012A00F03F82034692
:10089000012280F854200268906810F0040F40F0A4
:1008A0002482486804284ED8166B4FF4F86494FAF2
:1008B000A4F5B5FA85F505FB00F51F2707FA05F540
:1008C00026EA05060D6894FAA4F4B4FA84F404FB4D
:1008D00000F005FA00F0304310631A68906810F0D9
:1008E0000C0F40F0AE800868092840F281809669BC
:1008F000382494FAA4F5B5FA85F50A3800FB05F515
:10090000072707FA05F526EA05068D6894FAA4F488
:10091000B4FA84F404FB00F005FA00F0304390616F
:1009200048691C68E268C2F3C102520000FA02F290
:1009300008690138032800F2F280DFE810F0720045
:10094000BD00CE00DF0009281AD8566B4FF4F864BA
:1009500094FAA4F5B5FA85F5053800FB05F51F27CF
:1009600007FA05F526EA05060D6894FAA4F4B4FA28
:1009700084F404FB00F005FA00F030435063ACE768
:100980000E281AD8966B4FF4F86494FAA4F5B5FAC9
:1009900085F50A3800FB05F51F2707FA05F526EA55
:1009A00005060D6894FAA4F4B4FA84F404FB00F08C
:1009B00005FA00F0304390638FE7D66B4FF4F8648C
:1009C00094FAA4F5B5FA85F50F3800FB05F51F2755
:1009D00007FA05F526EA05060D6894FAA4F4B4FAB8
:1009E00084F404FB00F005FA00F03043D06374E7B0
:1009F0005669382494FAA4F5B5FA85F505FB00F597
:100A0000072707FA05F526EA05068D6894FAA4F487
:100A1000B4FA84F404FB00F005FA00F030435061AE
:100A20007EE7206EBA4D054008684FF0F84696FA0A
:100A3000A6F6B6FA86F6B0400243154345F00045E7
:100A400025661868826802F00302012A00F0B78068
:100A5000CA68B2F1804F00F0B980D0F8B0200D68BC
:100A60000124AC4022EA0402C0F8B0200A68112A2E
:100A700000F0ED80122A00F0F180002A40F0408161
:100A8000A449896811F4800F40F03C81186881689E
:100A900001F00301012900F0E880112A00F0F08044
:100AA000122A00F00F81002A40F02E819A4A9042CB
:100AB00000F0148100201DE1606E954D054008682E
:100AC0004FF0F84696FAA6F6B6FA86F6B04002431C
:100AD000154345F000456566B3E7A06E8C4D0540B3
:100AE00008684FF0F84696FAA6F6B6FA86F6B040D1
:100AF0000243154345F00045A566A2E7E06E844D2C
:100B0000054008684FF0F84696FAA6F6B6FA86F65B
:100B1000B0400243154345F00045E56691E7256E78
:100B200005F0F84508684FF0F84292FAA2F2B2FADE
:100B300082F200FA02F2954232D01D686C6E04F027
:100B4000F84408684FF0F84292FAA2F2B2FA82F240
:100B500000FA02F2944228D01D68AC6E04F0F8440A
:100B600008684FF0F84292FAA2F2B2FA82F200FA62
:100B700002F294421ED01D68EC6E04F0F84408683E
:100B80004FF0F84292FAA2F2B2FA82F200FA02F2BE
:100B900094427FF456AFEA6E22F00042EA6650E7D4
:100BA000226E22F000422266C7E76A6E22F00042FF
:100BB0006A66D1E7AA6E22F00042AA66DBE7026805
:100BC00012F0010F3FF444AF002093E0D0F8B020C2
:100BD0000D680124AC402243C0F8B0200A68082AFE
:100BE0001AD91E68B569382090FAA0F4B4FA84F4D2
:100BF000093A02FB04F4072707FA04F425EA04057E
:100C00008C6890FAA0F0B0FA80F000FB02F204FACF
:100C100002F22A43B26129E71E687569382090FA0A
:100C2000A0F4B4FA84F4013202FB04F4072707FAB3
:100C300004F425EA04058C6890FAA0F0B0FA80F07C
:100C400000FB02F204FA02F22A4372610EE7314914
:100C5000896811F4000F3FF419AF0BE72D4989683B
:100C600011F0807F3FF412AF07E7016811F0010F28
:100C70003FF413AF9A6D42F020029A65012039E0EB
:100C8000254A904201D0002034E022498A6842F48B
:100C900000028A60214A1268A1F14E61A1F5022189
:100CA000A1F27D41A1FB0212D20CC2EB0212D100D3
:100CB000019102E0019A013A0192019A002AF9D1C8
:100CC000002017E0144A904201D0002012E01149A0
:100CD0008A6842F080728A6000200BE00D498A68C1
:100CE00042F480028A60002004E09A6D42F0200203
:100CF0009A650120002283F8542002B0F0BC7047AE
:100D00000020F7E70020F5E70020F3E70220F4E7F2
:100D100000F0FF0300030450000004500C0000200A
:100D2000704770477047704770470000074AD368A4
:100D300023F4E0631B041B0C000200F4E060184382
:100D400040F0BF6040F40030D060704700ED00E03C
:100D500030B4174BDB68C3F30223C3F10704042C40
:100D600028BF04241D1D062D18D9033B4FF0FF3565
:100D700005FA04F421EA0401994005FA03F322EA92
:100D80000303194300280BDB0901C9B200F16040DD
:100D900000F5614080F8001330BC70470023E5E7A0
:100DA00000F00F000901C9B2024B1954F4E700BF6B
:100DB00000ED00E014ED00E000F01F024009012307
:100DC0009340024A42F82030704700BF00E100E043
:100DD0000138B0F1807F0AD2064B5860064AF021F4
:100DE00082F823100020986007221A6070470120C3
:100DF000704700BF10E000E000ED00E0042805D0DF
:100E0000054A136823F0040313607047024A13680D
:100E100043F004031360704710E000E0704708B52A
:100E2000FFF7FCFF08BD0000002864D010B40346A3
:100E30000168324A914244D8314A0A443149A1FBFF
:100E400002121209920042642F4A0264022283F8BD
:100E500025201868016821F47F5121F030019A683B
:100E6000DC6822431C6922435C6922439C6922435B
:100E7000DC6922431C6A22430A4302609A68B2F585
:100E8000804F11D0196C204A914225D01F4A116819
:100E90005C6C0F20A04021EA0001116011685868C5
:100EA0005C6CA040014311600020D8621863586355
:100EB0009863D863012283F8252083F8240010BCAE
:100EC0007047134A0A440F49A1FB0212120992000B
:100ED0004264104A0264B9E7A83211685C6C0F20C2
:100EE000A04021EA00011160116858685C6CA040C4
:100EF00001431160D8E70120704700BF070402409A
:100F0000F8FFFDBFCDCCCCCC00000240A8040240CD
:100F1000F8FBFDBF0004024038B5036C1A68046892
:100F20002568416C04238B40134213D015F0040F45
:100F300010D0236813F0200F03D1236823F004039B
:100F40002360416C026C04238B405360036B03B13C
:100F5000984738BD02238B4013421AD015F0020F78
:100F600017D0236813F0200F06D1236823F00A035B
:100F70002360012380F82530416C026C02238B40F2
:100F80005360002380F82430C36A002BE1D09847D7
:100F9000DFE7082303FA01F11142DAD015F0080F58
:100FA000D7D0236823F00E032360426C016C012329
:100FB00003FA02F24A60C36380F82530002380F808
:100FC0002430436B002BC4D09847C2E7F0B482B002
:100FD000002336E0042400E00024B4403C43023502
:100FE0005B4E46F825405B4C2568D44304EA050671
:100FF0004F6817F4803F01D042EA0506554D2E6038
:101000006D6804EA05064F6817F4003F01D042EA14
:101010000506504D6E60AD6804EA05064F6817F48A
:10102000801F01D042EA05064A4DAE60ED682C40B3
:101030004E6816F4001F01D042EA0504454AD46008
:1010400001330A6832FA03F47ED001249C40224026
:10105000F6D04D68022D01D0122D10D1DE080836D1
:1010600050F826C003F00705AF000F25BD402CEA5D
:10107000050C0D69BD4045EA0C0540F82650066890
:101080005F000325BD40ED4305EA060C4E6806F0FF
:101090000306BE4046EA0C0606604E6806F1FF3CB9
:1010A000BCF1010F03D9112E01D0122E10D1866888
:1010B00005EA060CCE68BE4046EA0C068660466825
:1010C00026EA04044E68C6F300169E402643466096
:1010D000C46825408C68BC402C43C4604C6814F044
:1010E000805FADD01C4C256E45F001052566246E51
:1010F00004F001040194019C9D08AE1C144C54F8AA
:10110000267003F00304A6000F24B44027EA040766
:10111000B0F1904F3FF460AF104CA0420ED004F5F8
:101120008064A0420CD004F58064A0420AD004F58B
:101130008064A0423FF44EAF07244EE701244CE701
:1011400002244AE7032448E702B0F0BC704700BF1E
:10115000000001400004014000100240000400486B
:101160000AB981627047816170470000024B1868BC
:1011700000F4C060704700BF00700040B0F5007F11
:101180000FD0204B1B6803F4C063B3F5806F37D0DA
:101190001C4A136823F4C06343F480631360002087
:1011A0007047184B1B6803F4C063B3F5007F25D06C
:1011B000144A136823F4C06343F400731360124BA2
:1011C0001B6802F1467202F55B3202F28322A2FB37
:1011D00003239A0C322303FB02F300E0013B23B10B
:1011E000084A526912F4806FF8D1064B5B6913F418
:1011F000806F01D1002070470320704700207047A6
:1012000000207047007000400C00002030B583B013
:101210000546204B9B6D13F0805F0BD0FFF7A6FFB8
:10122000B0F5007F17D0802D1FD82DD0702D2DD078
:1012300000211BE0174CA36D43F08053A365A36D01
:1012400003F080530193019BFFF790FFA36D23F000
:101250008053A365E4E7802D03D9A02D03D9022193
:1012600004E0002102E0012100E003210A4A1368A2
:1012700023F007030B431360136803F007038B424B
:1012800006D0012003B030BD0221EFE70121EDE7D8
:101290000020F7E700100240002002403B4B9B6813
:1012A00013F00C0F1AD0394B9B6803F00C030C2B76
:1012B0000ED0364B9B6803F00C03042B2FD0334B1E
:1012C0009B6803F00C03082B2CD00020014618E08B
:1012D0002E4BDB6803F00303012BEAD12B4B1B6879
:1012E00013F0080F14D1294BD3F89430C3F3032320
:1012F000274A52F82310254B9B6813F00C0F0CD093
:101300000020224A936803F00C030C2B0DD0704789
:101310001E4B1B68C3F30313EAE70846F1E71D48B9
:101320000021EEE71C480021EBE71346D26802F0EB
:101330000302DB68C3F302130133022A0AD0032A33
:101340001AD0B1FBF3F3114AD068C0F3062000FBBA
:1013500003F008E00F48B0FBF3F30C4AD068C0F389
:10136000062000FB03F0094BDB68C3F34163013344
:101370005B00B0FBF3F0CAE70748B0FBF3F3034AA6
:10138000D068C0F3062000FB03F0ECE70010024039
:10139000F45100080024F40000127A0070B582B005
:1013A0000446036813F0100F3FD0974B9B6813F06F
:1013B0000C0F40F09280944B1B6813F0020F03D087
:1013C0008369002B00F0C082206A8F4B1B6813F0EA
:1013D000080F62D08C4B1B6803F0F003984263D96E
:1013E000FFF714FF002840F0B182874B1A6842F0E3
:1013F00008021A601A6822F0F002216A0A431A6091
:101400005A6822F47F42E16942EA01225A60FFF7FA
:1014100045FF7D4B9B68C3F303137C4AD35CD840E4
:101420007B4B18600020FEF7EBFF236813F0010FE1
:1014300000F0A180744B9B6803F00C03082B00F0B4
:101440009180714B9B6803F00C030C2B00F08380A0
:101450006368B3F5803F00F0B580B3F5A02F00F0CE
:10146000B780694B1A6822F480321A601A6822F435
:1014700080221A606368002B00F0B780FEF7EAFF55
:101480000546614B1B6813F4003F74D1FEF7E2FF81
:10149000401B6428F5D903205FE25B4BD3F89430FE
:1014A0001B0903F0F00399E7574B1A6842F0080252
:1014B0001A601A6822F0F002216A0A431A605A6818
:1014C00022F47F42E16942EA01225A60206AFFF772
:1014D0009DFE00289BD001203FE2836933B34A4A36
:1014E000136843F001031360FEF7B4FF0546464B53
:1014F0001B6813F0020F06D1FEF7ACFF401B022859
:10150000F5D9032029E2404B1A6842F008021A601C
:101510001A6822F0F002216A0A431A605A6822F41B
:101520007F42E16942EA01225A607EE7364A136847
:1015300023F001031360FEF78DFF0546324B1B6855
:1015400013F0020F3FF471AFFEF784FF401B022837
:10155000F4D9032001E22C4BDB6803F00303032BD7
:101560007FF476AF284B1B6813F4003F03D0636809
:10157000002B00F0ED81236813F0020F61D0224BA5
:101580009B6803F00C03042B4AD01F4B9B6803F0AD
:101590000C030C2B3ED0E368002B78D01A4A13685A
:1015A00043F480731360FEF755FF0546164B1B6826
:1015B00013F4806F62D1FEF74DFF401B0228F5D96E
:1015C0000320CAE1104A136843F48033136051E7E3
:1015D00003F18043A3F53C331A6842F480221A6079
:1015E0001A6842F480321A6044E7FEF733FF05467A
:1015F000054B1B6813F4003FBDD0FEF72BFF401BCB
:101600006428F5D90320A8E100100240DC5100084D
:101610000C000020B14BDB6803F00303022BBAD1AE
:10162000AE4B1B6813F4806F03D0E368002B00F00F
:101630009181AA4A536823F0F853216943EA016370
:101640005360236813F0080F4CD063699BB3A34A1F
:10165000D2F8943043F00103C2F89430FEF7FAFE5A
:1016600005469E4BD3F8943013F0020F3AD1FEF7A3
:10167000F1FE401B0228F4D903206EE1974A53681B
:1016800023F0F853216943EA01635360D9E7934A91
:10169000136823F480731360FEF7DCFE05468F4B5E
:1016A0001B6813F4806FCCD0FEF7D4FE401B0228D9
:1016B000F5D9032051E1894AD2F8943023F001038F
:1016C000C2F89430FEF7C6FE0546844BD3F894303A
:1016D00013F0020F06D0FEF7BDFE401B0228F4D91E
:1016E00003203AE1236813F0040F7AD07B4B9B6D03
:1016F00013F0805F36D1794B9A6D42F080529A6533
:101700009B6D03F080530193019B0125744B1B6873
:1017100013F4807F28D0A368012B39D0052B3FD04C
:101720006E4BD3F8902022F00102C3F89020D3F83A
:10173000902022F00402C3F89020A368002B3DD033
:10174000FEF788FE0646654BD3F8903013F0020F83
:1017500046D1FEF77FFE801B41F288339842F2D9D2
:101760000320FAE00025D1E75D4A136843F4807353
:101770001360FEF76FFE0646594B1B6813F4807F1B
:10178000C9D1FEF767FE801B0228F5D90320E4E0EB
:10179000524AD2F8903043F00103C2F89030CCE7BF
:1017A0004E4BD3F8902042F00402C3F89020D3F8B7
:1017B000902042F00102C3F89020BEE7FEF74AFEF7
:1017C0000646464BD3F8903013F0020F08D0FEF7D0
:1017D00041FE801B41F288339842F2D90320BCE0DD
:1017E000E5B9236813F0200F35D0636AE3B13B4AB3
:1017F000D2F8983043F00103C2F89830FEF72AFE81
:101800000546364BD3F8983013F0020F23D1FEF77C
:1018100021FE401B0228F4D903209EE02F4A936D3D
:1018200023F080539365DCE72C4AD2F8983023F0FC
:101830000103C2F89830FEF70DFE0546274BD3F89A
:10184000983013F0020F06D0FEF704FE401B02286A
:10185000F4D9032081E0A36A002B7DD01F4A92684F
:1018600002F00C020C2A7AD0022B23D01B4B1A68F0
:1018700022F080721A601B6813F0006F04D1174ABF
:10188000D36823F00303D360144AD36823F088732A
:1018900023F48033D360FEF7DDFD04460F4B1B6855
:1018A00013F0007F4ED0FEF7D5FD001B0228F5D9BE
:1018B000032052E0094A136823F080731360FEF797
:1018C000C9FD0546054B1B6813F0007F0AD0FEF7E3
:1018D000C1FD401B0228F5D903203EE00010024064
:1018E00000700040236B5A1E636B1B0243EA021315
:1018F000E26A1343E26B5208013A43EA4253226C14
:101900005208013A43EA4263A26B43EAC263154AB2
:10191000D360136843F080731360D36843F080731F
:10192000D360FEF797FD04460E4B1B6813F0007F53
:1019300006D1FEF78FFD001B0228F5D903200CE02D
:1019400000200AE0002008E0012006E0012004E079
:10195000012002E0012000E0002002B070BD012063
:10196000FBE700BF00100240664B1B6803F0070353
:101970008B420CD2634A136823F007030B431360B6
:10198000136803F007038B4201D00120704770B544
:10199000036813F0020F06D05B4A936823F0F0034C
:1019A0008468234393600C460546036813F0010FD7
:1019B0006CD04368022B0AD0032B2DD0002B32D1E0
:1019C000514A126812F0020F07D1012097E04E4AE7
:1019D000126812F4003F00F093804B498A6822F0AD
:1019E000030213438B60FEF735FD06466B68022B3E
:1019F00020D0032B2DD0002B3AD0434B9B6803F013
:101A00000C03042B42D0FEF725FD801B41F28833E6
:101A10009842F2D9032072E03B4A126812F0007F2C
:101A2000DBD101206BE0384A126812F4806FD4D108
:101A3000012064E0344B9B6803F00C03082B25D095
:101A4000FEF708FD801B41F288339842F2D903204B
:101A500055E02D4B9B6803F00C030C2B16D0FEF7C2
:101A6000F9FC801B41F288339842F2D9032046E00A
:101A7000254B9B6813F00C0F08D0FEF7EBFC801B86
:101A800041F288339842F3D9032038E01D4B1B689C
:101A900003F00703A3420CD91A4A136823F0070383
:101AA00023431360136803F00703A34201D001200E
:101AB00025E02B6813F0040F06D0134A936823F433
:101AC000E063E9680B4393602B6813F0080F07D0BD
:101AD0000D4A936823F46053296943EAC103936074
:101AE000FFF7DCFB084B9B68C3F30313074AD35C87
:101AF000D840074B18600020FEF782FC002070BD24
:101B00000120FCE70020024000100240DC510008E8
:101B10000C000020014B1868704700BF0C0000202B
:101B200008B5FFF7F7FF044B9B68C3F30223034A92
:101B3000D35CD84008BD00BF00100240EC51000843
:101B400008B5FFF7E7FF044B9B68C3F3C223034AC2
:101B5000D35CD84008BD00BF00100240EC51000823
:101B6000F8B5594BDB6813F0030F18D0564BDB6800
:101B700003F003030268934202D001252846F8BD12
:101B8000002A00F09F80504BDB68C3F3021301333F
:101B90004268934201D00125F0E700251AE003686E
:101BA000022B58D0032B5DD0012B01D001250FE073
:101BB000454A126812F0020F60D0434DEA6822F0E5
:101BC00073024468013C43EA04131343EB600025AD
:101BD000002DD3D10F4604463B4A136823F080639F
:101BE0001360FEF737FC0646374B1B6813F0006F97
:101BF00005D0FEF72FFC801B0228F5D90325002D08
:101C0000BCD1002F3CD130490B6923F0784323F439
:101C1000FE43A068E268D20642EA002213430B6149
:101C2000294A136843F080631360FEF713FC0646ED
:101C3000254B1B6813F0006F05D1FEF70BFC801BD2
:101C40000228F5D90325002D98D11F4A1369A169EF
:101C50000B43136192E71C4A126812F4806FACD1F7
:101C60000125B5E7184A126812F4003FA5D1164ABB
:101C7000126812F4802FA0D10125A9E70125A7E75A
:101C8000012F0FD01048026922F0C06222F4FE42F8
:101C9000A16863695B08013B5B0643EA01231343C8
:101CA0000361BDE70848026922F4C00222F4FE4243
:101CB000A16823695B08013B5B0543EA01231343E9
:101CC0000361ADE7012559E7001002402DE9F0411D
:101CD00082B00446036813F4006F26D0436CB3F55A
:101CE000000F06D0B3F5400F1DD09BB1012637463B
:101CF0001DE0BD4AD36843F48033D3600027BA4A5D
:101D0000D2F8883023F44003616C0B43C2F888306A
:101D100000260CE000210430FFF722FF07460028D0
:101D2000EDD0064603E00027E9E7002637462368A2
:101D300013F4003F6BD0AC4B9B6D13F0805F4CD124
:101D4000A94B9A6D42F080529A659B6D03F08053C7
:101D50000193019B4FF00108A44A136843F4807378
:101D60001360FEF777FB0546A04B1B6813F4807FDA
:101D700005D1FEF76FFB401B0228F5D90327002F82
:101D800040D1994BD3F8903013F4407315D0E26DE5
:101D90009A4212D0944AD2F8903023F44073D2F889
:101DA000901041F48031C2F89010D2F8901021F4D4
:101DB0008031C2F89010C2F8903013F0010F0FD1AB
:101DC000002F40F0F780884AD2F8903023F4407317
:101DD000E16D0B43C2F8903015E04FF00008BBE70F
:101DE000FEF738FB0546804BD3F8903013F0020F16
:101DF000E6D1FEF72FFB401B41F288339842F2D91F
:101E00000327DDE73E46B8F1000F40F0D580236898
:101E100013F0010F08D0744AD2F8883023F003037E
:101E2000216A0B43C2F88830236813F0020F08D0F0
:101E30006D4AD2F8883023F00C03616A0B43C2F874
:101E40008830236813F0040F08D0674AD2F888302E
:101E500023F03003A16A0B43C2F88830236813F0E3
:101E6000200F08D0604AD2F8883023F44063E16A3A
:101E70000B43C2F88830236813F4007F08D05A4A15
:101E8000D2F8883023F44023E16B0B43C2F888304A
:101E9000236813F4806F08D0534AD2F8883023F4B3
:101EA0004013216C0B43C2F88830236813F0400FB5
:101EB00008D04D4AD2F8883023F44053216B0B43AD
:101EC000C2F88830236813F0800F08D0464AD2F851
:101ED000883023F44043616B0B43C2F88830236899
:101EE00013F4807F08D0404AD2F8883023F440337E
:101EF000A16B0B43C2F88830236813F4005F0FD046
:101F0000394AD2F8883023F04063A16C0B43C2F801
:101F10008830A36CB3F1006F54D0B3F1806F56D00A
:101F2000236813F4002F0FD02F4AD2F8883023F003
:101F30004063E16C0B43C2F88830E36CB3F1006F8F
:101F40004DD0B3F1806F53D0236813F4802F0FD09E
:101F5000254AD2F8883023F04063216D0B43C2F844
:101F60008830236DB3F1006F4AD0B3F1806F4CD04D
:101F7000236813F4804F0CD01B4AD2F8883023F02A
:101F80004053616D0B43C2F88830636DB3F1805FDD
:101F900043D0236813F4004F08D0134AD2F8883096
:101FA00023F08043A16D0B43C2F88830304602B065
:101FB000BDE8F0813E4626E70B4A936D23F080533F
:101FC000936524E7D36843F48013D360A8E7012125
:101FD000201DFFF7C5FD0028A2D00646A0E7D36864
:101FE00043F48013D360AFE700100240007000405C
:101FF0000121201DFFF7B4FD0028A5D00646A3E768
:10200000D36843F48013D360B2E70121201DFFF7AA
:10201000A7FD0028ACD00646AAE70221201DFFF745
:102020009FFD0028B5D00646B3E700BF704700000B
:1020300010B504461E4B4FF480225A612AE0DA683C
:10204000D2B262F4C072DA602046FFF7EFFF18E008
:10205000DA68D2B262F42072DA60204600F0B4FB93
:1020600018E09A6812F4005F1ED0DA6812F4007F5C
:102070001AD09A6812F4805F03D0DA6812F4807F75
:10208000DDD123689A6812F4005F03D0DA6812F495
:10209000007FDDD123689A6812F4805FE1D0DA68AE
:1020A00012F4807FE5D1DCE7012384F8213010BDF4
:1020B0000004014038B504460268D36823F0A00349
:1020C000D360FEF7C7F905462368DB6813F0200FDD
:1020D00007D1FEF7BFF9401BB0F57A7FF4D9032092
:1020E00000E0002038BD38B50368DA6812F0400F10
:1020F00001D0002038BD04464FF0FF32DA60FEF711
:10210000A9F905462368DB6813F0400F07D1FEF7F5
:10211000A1F9401BB0F57A7FF4D90320EAE700204B
:10212000E8E738B5002864D0044690F82130002B49
:1021300044D0022384F821302368CA225A622368DB
:1021400053225A622046FFF7CEFF054600283AD1B7
:102150002268936823F4E00323F04003936021682E
:102160008A68636820690343A069034313438B6053
:102170002368E2681A6122681369A16843EA01438F
:1021800013612268D36823F08003D36023689B68BF
:1021900013F0200F20D02268D36C23F00303D36404
:1021A0002168CB6CE269606902431343CB64236806
:1021B000FF225A62012384F821300BE080F820309E
:1021C00002F022F8B5E72368FF225A62042384F85C
:1021D00021300125284638BD2046FFF76BFF002837
:1021E000D9D02368FF225A62042384F821300125C4
:1021F000F0E70125EEE7002302E001330A38C0B220
:102200000928FAD81B01DBB218437047F8B590F8DB
:102210002030012B00F081800D460446012380F818
:102220002030022380F82130002A48D103689B68BF
:1022300013F0400F01D10023CB702878FFF7DBFFAC
:1022400006046878FFF7D7FF46EA0026A878FFF76C
:10225000D2FF3043EE7840EA06462368CA225A622B
:10226000236853225A622046FFF73DFF07460028A5
:1022700037D1236806F07F3626F0FE461E602268BE
:10228000936823F48023936021688B68EA68286947
:10229000024313438B602268D36823F08003D3602A
:1022A00023689B6813F0200F27D02368FF225A620F
:1022B000012384F82130002384F820301BE00368D8
:1022C0009B6813F0400F01D10023CB702B78687806
:1022D000000240EA0340AB781843EE7840EA064635
:1022E000BBE72368FF225A62042384F821300023CD
:1022F00084F8203001273846F8BD2046FFF7DAFE83
:102300000028D2D02368FF225A62042384F82130A7
:10231000002384F820300127EDE70227EBE770B5B2
:1023200090F82030012B6ED0012380F8203002235A
:1023300080F821303AB94B7813F0100F03D003F036
:10234000EF030A334B700E460446002A34D1C87896
:10235000FFF751FF05047078FFF74DFF45EA0025B0
:10236000B078FFF748FF2843357840EA45352368C1
:10237000CA225A62236853225A622046FFF7B3FEEC
:10238000064620BB236825F07F4525F0C0055D602B
:102390002268D36823F08003D36023689B6813F01E
:1023A000200F20D02368FF225A62012384F82130B5
:1023B000002384F8203014E048788D78CB78000230
:1023C00040EA034028430D7840EA4535CFE72368CB
:1023D000FF225A62042384F82130002384F820303D
:1023E0000126304670BD2046FFF764FE0028D9D094
:1023F0002368FF225A62042384F82130002384F8E2
:1024000020300126EDE70226EBE70000F8B590F852
:102410002030012B00F0C6800D460446012380F8D1
:102420002030022380F82130002A50D103689B68B5
:1024300013F0400F01D10023CB70EE692878FFF72D
:10244000DAFE07046878FFF7D6FE47EA0027A87887
:10245000FFF7D1FE0743E87847EA004795F82000E8
:10246000FFF7C9FE47EA006006436B691E436F68C9
:10247000AB691F432368CA225A62236853225A62F7
:102480006B6AB3F5807F3CD02268936823F40073B5
:1024900093602268D368DBB263F42073D360FDF7E6
:1024A000D9FF05462368DA6812F0020F5AD1FDF70A
:1024B000D1FF401BB0F57A7FF4D92368FF225A621E
:1024C000032084F82100002384F8203069E00368A9
:1024D0009B6813F0400F01D10023CB70EA69297883
:1024E0006B781B0243EA0143A9780B43E97843EA7E
:1024F000014395F8201043EA016313436E691E43BC
:10250000B5E72268936823F4807393602268D368E8
:10251000DBB263F4C073D360FDF79CFF054623680C
:10252000DA6812F0010F0FD1FDF794FF401BB0F5F0
:102530007A7FF4D92368FF225A62032084F82100AD
:10254000002384F820302CE0DE6123685F64226879
:10255000936843F4807393602268936843F48053D4
:1025600093600CE01E6223689F642268936843F4C2
:10257000007393602268936843F4005393600A4B9E
:102580001A6842F480221A609A6842F480229A60A3
:102590002368FF225A62012384F82130002084F846
:1025A0002000F8BD0220FCE70004014090F8203034
:1025B000012B6FD030B4012380F82030022380F843
:1025C00021308B6813B10B685B008B60CB68B3B1B3
:1025D0000023CB600B6813F0010F02D04FF40032E0
:1025E000CA6013F0080F03D0CA6842F48012CA60B0
:1025F00013F0200F03D0CB6843F40003CB600B69CA
:10260000B3B100230B610B6813F0010F02D04FF43C
:1026100080220A6113F0080F03D00A6942F4001205
:102620000A6113F0200F03D00B6943F080730B6134
:102630000A684B6813438C682343CC6823430C69B6
:1026400023434C6923438C692343CC6923430C6A9D
:102650002343496A0B430568296C42EA42020E4C47
:10266000144321EA0401296401680A6C13430B64D2
:102670000A4B1A6842F400221A609A6842F4002257
:102680009A60012380F82130002380F8203018461A
:1026900030BC70470220704784FFFF0100040140F6
:1026A000704770477047704710B504463D4B4FF474
:1026B00000225A6156E02046FFF7F2FF2268D368F5
:1026C000DBB263F40863D36031E0D368DBB263F458
:1026D0000253D3602046FFF7E4FF31E0D368DBB25A
:1026E00063F48143D3602046FFF7DCFF31E0D36819
:1026F000DBB243F07F4343F47F0343F4FE4343F0F4
:102700007F03D3602046FFF7CEFF2BE0196C264AEB
:102710000A40002A41D0DA6812F4004F3DD09A688E
:1027200012F4004F03D0DB6813F4006FC3D12268AA
:10273000116C1E4B0B401BB1D36813F4005FC4D166
:102740002268116C1A4B0B401BB1D36813F4804FF5
:10275000C4D12268116C144B0B401BB1D36813F425
:10276000004FC4D123689A6812F4004F03D0DA688E
:1027700012F4006FD3D1196C0C4A0A401AB1DA680E
:1027800012F4005FCBD1196C094A0A40002ABDD06F
:10279000DA6812F4804FC2D1B8E7012384F82130FF
:1027A00010BD00BF0004014004004000040001000F
:1027B000040008000368503343F821207047036881
:1027C000503353F8210070477047002853D010B59C
:1027D00004460023836290F85D30002B40D0022332
:1027E00084F85D302268136823F040031360E368C7
:1027F000B3F5E06F39D90022B3F5706F04D0B3F5AB
:10280000E06F01D00021A162216B21B9B3F5E06F27
:102810002ED9022323636368A1680B4321690B430C
:1028200061690B43A16901F400710B43E1690B433A
:10283000216A0B43A06A216803430B60638B03F09A
:102840000403616A0B43616B0B43E1680B4321682E
:1028500013434B6000202066012384F85D3010BDD7
:1028600080F85C3001F0F2FCB9E74FF48052C3E726
:1028700001232363CFE701207047000030B4036ACF
:1028800023F001030362036A4468826922F4803200
:1028900022F073020D682A4323F002038D682B4354
:1028A000144DA84207D005F5A055A84203D005F560
:1028B0008065A84205D123F00803CD682B4323F09F
:1028C00004030C4DA84207D005F5A055A84203D03B
:1028D00005F58065A84205D124F440754C692C4368
:1028E0008D692C43446082614A684263036230BC54
:1028F000704700BF002C014030B4036A23F480739A
:102900000362036A4268C46924F4803424F07304C7
:102910000D682C4323F400738D6843EA0523124DA0
:10292000A84219D0104DA84207D005F5A055A842DD
:1029300003D005F58065A84207D122F440524D69C5
:1029400042EA05128D6942EA05124260C4614A6892
:10295000C263036230BC704723F40063CD6843EA6E
:10296000052323F48063DDE7002C014030B4036AC3
:1029700023F480530362026A4468C36923F08073BE
:1029800023F4E6430D6843EA052322F400528D68E0
:1029900042EA05320B4DA84207D005F5A055A842E2
:1029A00003D005F58065A84204D124F480444D6924
:1029B00044EA85144460C3614B680364026230BC1E
:1029C000704700BF002C014030B4036A23F4803309
:1029D0000362036A4468426D22F4803222F070027E
:1029E0000D682A4323F400338D6843EA05430B4DF9
:1029F000A84207D005F5A055A84203D005F580658B
:102A0000A84204D124F480344D6944EA052444608A
:102A100042654A688265036230BC7047002C014001
:102A200030B4036A23F480130362026A4468436D7E
:102A300023F0807323F4E0430D6843EA052322F476
:102A400000128D6842EA05520B4DA84207D005F5E9
:102A5000A055A84203D005F58065A84204D124F40E
:102A600080244D6944EA8524446043654B68C3650E
:102A7000026230BC704700BF002C014010B4036AF2
:102A8000046A24F001040462846924F0F00444EA36
:102A9000021223F00A030B438261036210BC7047E9
:102AA00010B4036A23F0100303628469036A24F4F8
:102AB000704444EA023223F0A00343EA0113826126
:102AC000036210BC7047836823F0700341F0070174
:102AD000194381607047704770477047704770476F
:102AE000704710B5044603681A6912F0020F11D03E
:102AF000DA6812F0020F0DD06FF002021A610123A2
:102B0000037603689B6913F0030F70D0FFF7E6FFAD
:102B10000023237623681A6912F0040F12D0DA68B2
:102B200012F0040F0ED06FF004021A610223237614
:102B300023689B6913F4407F5FD02046FFF7CEFFE8
:102B40000023237623681A6912F0080F12D0DA687E
:102B500012F0080F0ED06FF008021A6104232376DA
:102B60002368DB6913F0030F4ED02046FFF7B6FF52
:102B70000023237623681A6912F0100F12D0DA6846
:102B800012F0100F0ED06FF010021A610823237696
:102B90002368DB6913F4407F3DD02046FFF79EFF9A
:102BA0000023237623681A6912F0010F03D0DA6834
:102BB00012F0010F36D123681A6912F0800F03D08A
:102BC000DA6812F0800F34D123681A6912F0400FCE
:102BD00003D0DA6812F0400F32D123681A6912F07C
:102BE000200F03D0DA6812F0200F30D110BDFFF7AC
:102BF00074FF2046FFF773FF8AE72046FFF76DFF5B
:102C00002046FFF76CFF9BE72046FFF766FF204654
:102C1000FFF765FFACE72046FFF75FFF2046FFF7B1
:102C20005EFFBDE76FF001021A612046FFF754FF17
:102C3000C1E76FF080021A61204600F052FAC3E744
:102C40006FF040021A612046FFF74AFFC5E76FF0B8
:102C500020021A61204600F043FAC7E70368184AC9
:102C6000904202D0B0F1804F03D123F070034A6844
:102C70001343134A90420AD0B0F1804F07D002F5B7
:102C8000A052904203D002F58062904203D123F417
:102C90004073CA68134303608B68C3620B68836226
:102CA000074B984207D003F5A053984203D003F591
:102CB0008063984201D10B6903630123436170472C
:102CC000002C0140A8B110B5044690F839305BB132
:102CD000022384F83930211D2068FFF7BFFF01234C
:102CE00084F83930002010BD80F8383001F0D6FA71
:102CF000EEE701207047A8B110B5044690F83930CE
:102D00005BB1022384F83930211D2068FFF7A6FF4C
:102D1000012384F83930002010BD80F83830FFF7E7
:102D2000DAFEEEE70120704730B4036A23F01003A7
:102D30000362036A4468826922F0807222F4E642E8
:102D40000D6842EA052223F020038D6843EA05134B
:102D5000124DA84219D0114DA84207D005F5A05533
:102D6000A84203D005F58065A84207D124F4406449
:102D70004D6944EA85048D6944EA850444608261B2
:102D80004A688263036230BC704723F08003CD68D9
:102D900043EA051323F04003DDE700BF002C0140A8
:102DA00038B590F83830012B00F092800D4604467B
:102DB000012380F83830022380F83930142A1ED8D5
:102DC000DFE802F00B1D1D1D241D1D1D381D1D1DDE
:102DD0004B1D1D1D5F1D1D1D72000068FFF74EFD80
:102DE0002268936943F0080393612268936923F092
:102DF000040393612268936929690B43936101235A
:102E000084F83930002084F8380038BD0068FFF7B6
:102E10008BFF2268936943F400639361226893698E
:102E200023F48063936122689369296943EA01234B
:102E30009361E4E70068FFF75FFD2268D36943F020
:102E40000803D3612268D36923F00403D3612268A5
:102E5000D36929690B43D361D1E70068FFF786FD89
:102E60002268D36943F40063D3612268D36923F4F1
:102E70008063D3612268D369296943EA0123D3615E
:102E8000BDE70068FFF7A0FD2268536D43F008031B
:102E900053652268536D23F0040353652268536D14
:102EA00029690B435365AAE70068FFF7B9FD22685B
:102EB000536D43F4006353652268536D23F48063BC
:102EC00053652268536D296943EA0123536596E7E8
:102ED00002209AE710B4846824F47F4442EA032372
:102EE0000B432343836010BC7047000090F83830D8
:102EF000012B00F0828010B50446012380F83830A1
:102F0000022380F83930026890683D4B034093609B
:102F10000B68402B5DD010D9702B40D01FD8502BA0
:102F20004DD0602B34D1CA6849682068FFF7B8FDDE
:102F300060212068FFF7C7FD2AE0102B53D008D985
:102F4000202B55D0302B23D130212068FFF7BBFD3B
:102F50001EE0EBB900212068FFF7B5FD18E0B3F5DE
:102F6000805F0ED0B3F5005F12D1CB684A688968E4
:102F70002068FFF7AFFF2268936843F480439360B3
:102F800006E02268936823F4803323F007039360FC
:102F9000012384F83930002084F8380010BDCB6854
:102FA0004A6889682068FFF795FF2268936823F4D0
:102FB000803323F0770343F077039360E8E7CA6830
:102FC00049682068FFF75AFD50212068FFF77BFD14
:102FD000DEE7CA6849682068FFF750FD4021206895
:102FE000FFF771FDD4E710212068FFF76CFDCFE7F4
:102FF00020212068FFF767FDCAE70220704700BF65
:103000008800FEFF90F83830012B1FD030B4012328
:1030100080F838300268536895680D4CA24210D091
:1030200023F070030C68234325F080048968214352
:10303000536003689960002380F83830184630BC2C
:10304000704723F470034C682343E9E7022070477C
:10305000002C014090F83830012B3DD010B40123F2
:1030600080F83830CB6823F440738A68134323F424
:1030700080634A68134323F400630A68134323F40C
:1030800080530A69134323F400534A69134323F41A
:1030900080438A6A134323F40043134323F47023C9
:1030A0008A6943EA024302680C4CA24206D0536488
:1030B000002380F83830184610BC704723F47003A2
:1030C0004C6A43EA045323F08073CC69234323F012
:1030D0000073096A0B43EAE702207047002C0140A5
:1030E000704770472DE9F04804460168836802691B
:1030F000134342691343C26913430868A04A02405C
:1031000013430B602268536823F44053E1680B4378
:103110005360A16922689B4B9A4201D0236A1943EC
:10312000936823F430630B4393602368964A934279
:103130001FD0964A934230D0954A934246D0914A46
:10314000934259D010258F4A934276D0E269B2F566
:10315000004F00F0EE80082D00F28681DFE815F0C8
:1031600042014E015A0184016601840184018401F7
:10317000720102F55842D2F8882002F00302032AB5
:1031800009D8DFE802F0020452060125DBE7042536
:10319000D9E70825D7E71025D5E702F5E632D2F8BA
:1031A000882002F00C020C2A0ED8DFE802F0070D8E
:1031B0000D0D090D0D0D400D0D0D0B000025C2E785
:1031C0000425C0E70825BEE71025BCE702F5E43278
:1031D000D2F8882002F03002102A09D005D9202A1E
:1031E00027D0302A06D10825ADE71AB90025AAE76D
:1031F0000425A8E71025A6E702F5C832D2F88820F2
:1032000002F44062B2F5806F0BD007D9B2F5006FBF
:1032100011D0B2F5406F06D1082594E71AB9002500
:1032200091E704258FE710258DE702258BE702251E
:1032300089E7022587E7022585E7082D00F20C8142
:10324000DFE815F00C000A0116000A0112000A015D
:103250000A010A0109004FF400430AE0FEF760FC8E
:10326000034633B900207EE0FEF718F80346F8E77E
:10327000484B626802EB4201994200F2EF80B3EBE7
:10328000023F00F2ED80082D51D8DFE805F005502F
:103290002050305050504300FEF742FC0025070EEE
:1032A0000602626850082B4616EB000B47F1000C33
:1032B0005846614601F0F8F803462846A3F54071E8
:1032C000354A914200F2CE802268D3604BE0560826
:1032D00000252B46DFF8C4B04FF0000C1BEB0600B6
:1032E0004CF1000101F0E0F803462846E6E7FDF75F
:1032F000D5FF0025070E0602626850082B4616EB24
:10330000000B47F1000C5846614601F0CDF803462A
:103310002846D3E75008002700252B4610F500006B
:1033200047F1000101F0C0F803462846C6E7012036
:10333000C4E7082D53D8DFE805F0051833523E5294
:1033400052524900FEF7ECFB61684B0803EB400268
:10335000B2FBF1F292B2002022F00F03C2F342025C
:103360001A432368DA60BDE8F088FEF7E9FB61687C
:103370004B0803EB4002B2FBF1F292B20020EBE704
:10338000F369FFEF00800040003801400044004036
:10339000004800400024F400FFFC0F00000024F46B
:1033A00063685A0802F1F47202F59042B2FBF3F23C
:1033B00092B20020D0E7FDF771FF61684B0803EB84
:1033C0004002B2FBF1F292B20020C5E763685A08EE
:1033D00002F58032B2FBF3F292B20020BCE701208A
:1033E0000022B9E7FEF79CFB636800EB5300B0FBDB
:1033F000F3F0236880B2D8600020B4E7FEF7A0FBAA
:10340000636800EB5300B0FBF3F0236880B2D86030
:103410000020A8E761684A0802F5740202F510521C
:10342000B2FBF1F292B2DA6000209CE7FDF736FFC2
:10343000636800EB5300B0FBF3F0236880B2D86000
:10344000002090E761684A0802F50042B2FBF1F201
:1034500092B2DA60002086E7012084E7012082E74B
:10346000012080E701207EE701207CE7436A13F01A
:10347000010F06D00268536823F40033816A0B43BE
:103480005360436A13F0020F06D00268536823F4B6
:103490008033C16A0B435360436A13F0040F06D0B4
:1034A0000268536823F48023016B0B435360436A23
:1034B00013F0080F06D00268536823F40043416BF1
:1034C0000B435360436A13F0100F06D002689368F1
:1034D00023F48053816B0B439360436A13F0200FF6
:1034E00006D00268936823F40053C16B0B439360CA
:1034F000436A13F0400F0AD00268536823F4801324
:10350000016C0B435360036CB3F5801F0BD0436A0F
:1035100013F0800F06D00268536823F40023816CF7
:103520000B43536070470268536823F4C003416C37
:103530000B435360EBE72DE9F04105460F46164675
:103540009846069C2B68DB6937EA03030CBF01230E
:103550000023B3421DD1B4F1FF3FF3D02CB1FCF7EF
:1035600079FFA0EB0800A042ECD92A68136823F485
:10357000D07313602A68936823F0010393602023BB
:1035800085F8693085F86A30002385F868300320B3
:1035900000E00020BDE8F08130B583B00446002390
:1035A000C366FCF757FF054623681B6813F0080F36
:1035B0000ED123681B6813F0040F17D1202384F861
:1035C000693084F86A30002084F8680003B030BDA8
:1035D0006FF07E430093034600224FF40011204613
:1035E000FFF7A9FF0028E4D00320EFE76FF07E4348
:1035F00000932B4600224FF480012046FFF79BFFEB
:103600000028DBD00320E1E778B310B5044690F83A
:1036100069300BB3242384F869302268136823F0DF
:10362000010313602046FFF75DFD012813D0636A94
:10363000BBB92268536823F49043536022689368AF
:1036400023F02A0393602268136843F00103136098
:103650002046FFF7A1FF10BD80F8683000F0A2FE01
:10366000D8E72046FFF702FFE3E701207047FEE7B7
:1036700008B503460C4A12685AB10B4A1068033366
:1036800023F003030344094A934206D8064A136011
:1036900008BD054A06491160EFE701F085F80C23E3
:1036A00003604FF0FF30F3E77C00002000FC0020B7
:1036B0007403002001230360014B0B60704700BFBF
:1036C000040000200FB400B583B004AB53F8042B02
:1036D00001938021064801F0A5F8002803DD01468A
:1036E000034800F037F803B05DF804EB04B070470E
:1036F000840000202DE9F04385B004460F46435670
:103700000BB10E461EE0042528462146ABBE0446FA
:10371000384605B0BDE8F08314F9011B04AA1A4429
:1037200002F8101C0133AB42F6D304AA1344002262
:1037300003F8102C4FF00408E94640464946ABBE5A
:103740008046761B002EE3D03546102E28BF10256C
:103750000023E8E708B5FFF7CDFF08BD08B500F086
:1037600099F8024A024B9A6008BD00BF00000008A9
:1037700000ED00E008B500F0ABF808BDF8B5044670
:103780000D4617461E462748FFF79CFF216826482E
:10379000FFF798FF61682548FFF794FFA168244868
:1037A000FFF790FFE1682348FFF78CFF216922486B
:1037B000FFF788FF61692148FFF784FFA16920486E
:1037C000FFF780FFE1691F48FFF77CFF1E48FFF706
:1037D00079FF29461D48FFF775FF1D4CE16A1D481A
:1037E000FFF770FF216B1C48FFF76CFFE16B1B4874
:1037F000FFF768FF15F0800F0AD115F4004F0CD1C8
:103800001748FFF75FFF06991648FFF75BFFF8BD03
:1038100039461548FFF756FFEFE731461348FFF7E3
:1038200051FFEDE794500008A4500008B450000880
:10383000C4500008D4500008E4500008F4500008B8
:1038400004510008145100082451000830510008A8
:1038500000ED00E0405100085051000860510008A0
:1038600090510008985100087051000880510008DC
:1038700083691A888A4201D0002070470268033A9F
:10388000012A03D80233836101207047002070476A
:10389000FEE700000C4B1A6842F001021A6000219A
:1038A00099601A6822F0A85222F410221A604FF48C
:1038B0008052DA601A6822F480221A609961034B00
:1038C0004FF000629A6070470010024000ED00E087
:1038D0002F4B1B6813F0080F16D12D4BD3F89430E3
:1038E000C3F303232B4A52F82310294A936803F0A9
:1038F0000C030C2B48D8DFE803F00C474747194767
:1039000047471D4747472100214B1B68C3F303135B
:10391000E8E7214B19601E4B9B68C3F303131F4A52
:10392000D15C1D4A1368CB40136070471A4B1C4A88
:103930001A60F0E7184B1B4A1A60ECE7144BDA6880
:1039400002F00302DB68C3F302130133022A04D03E
:10395000032A15D0B1FBF3F302E0114AB2FBF3F3F3
:103960000B49CA68C2F3062203FB02F3CA68C2F31A
:10397000416201325200B3FBF2F3074A1360CAE717
:10398000084AB2FBF3F3EBE7034B1960C3E700BF50
:1039900000100240F45100080C000020DC51000827
:1039A0000024F40000127A00F0B58BB0334BDA6CCF
:1039B00042F00402DA64DA6C02F004020192019A25
:1039C000DA6C42F08002DA64DA6C02F08002029271
:1039D000029ADA6C42F00102DA64DA6C02F0010257
:1039E0000392039ADA6C42F00202DA64DB6C03F0B1
:1039F00002030493049B224D002245F2B82128467D
:103A0000FDF7AEFB00224FF4F8514FF09040FDF768
:103A1000A7FB062305931B4E06960024079405A9D1
:103A20002846FDF7D3FA45F2B823059301270697F8
:103A30000794089405A92846FDF7C8FA4FF4F853EF
:103A4000059306970794089405A94FF09040FDF759
:103A5000BDFA4FF4004305930696079405A94FF06D
:103A60009040FDF7B3FA4FF48073059306940794E2
:103A700005A92846FDF7AAFA0BB0F0BD00100240D8
:103A8000000400480000111000B583B00A4B9A6C86
:103A900042F001029A649B6C03F001030193019BC5
:103AA000002211460B20FDF753F90B20FDF784F996
:103AB00003B05DF804FB00BF00100240FEE7000009
:103AC00008B51148114B03604FF482734360002323
:103AD00083604FF4E062C260036143614FF400729F
:103AE00082613822C2610362436283620722C2623A
:103AF000036308234363FEF768FE00B908BD40F284
:103B0000CB110348FFF7DAFF140100200038004012
:103B10002452000800B593B02448254B03600122CD
:103B2000426000238360C26003614361FFF7CAF80B
:103B300040BB1E48FFF7DFF848BB60230B9302230E
:103B40000C9300220D920E920F92109211920BA9DB
:103B50001648FFF725F9F8B9002300930193029363
:103B6000039304934FF40052059206930A93694617
:103B70000E48FFF76FFAA0B90C4800F0F7FB13B03E
:103B80005DF804FB40F221210A48FFF797FF40F25D
:103B900026210848FFF792FF40F232210548FFF73F
:103BA0008DFF40F23F210348FFF788FF34030020D8
:103BB000004401402452000808B50D480D4B036035
:103BC0004FF4E13343604FF0805383600023C360C0
:103BD00003610C2242618361C36103624362FFF7A8
:103BE00013FD00B908BD40F256210348FFF766FFF8
:103BF00078010020004800402452000800B587B03A
:103C00006C486D4B0360002343608360C3600122F6
:103C10000261042141618361C3610C21016243623D
:103C20008262C262036343638363C363FCF718FC6D
:103C300000287FD1052300930122019202930023E3
:103C400003930493059369465A48FCF717FE00282E
:103C500074D1062300930223019369465548FCF76B
:103C60000DFE00286ED107230093032301936946BC
:103C70005048FCF703FE002869D108230093042371
:103C8000019369464B48FCF7F9FD002864D10923EC
:103C900000930523019369464648FCF7EFFD002891
:103CA0005FD10A2300930623019369464148FCF73C
:103CB000E5FD00285AD10B230093072301936946A1
:103CC0003C48FCF7DBFD002855D10C23009308236A
:103CD000019369463748FCF7D1FD002850D10F23E6
:103CE00000930923019369463248FCF7C7FD002879
:103CF0004BD1112300930A23019369462D48FCF709
:103D0000BDFD002846D1122300930B230193694681
:103D10002848FCF7B3FD002841D1002300930C2371
:103D2000019369462348FCF7A9FD00283CD107B060
:103D30005DF804FBEC212148FFF7C0FEF9211F4884
:103D4000FFF7BCFE4FF481711C48FFF7B7FE40F24D
:103D50000B111A48FFF7B2FE4FF48A711748FFF7AC
:103D6000ADFE40F21D111548FFF7A8FE4FF4937108
:103D70001248FFF7A3FE40F22F111048FFF79EFEF6
:103D80004FF49C710D48FFF799FE40F241110B482A
:103D9000FFF794FE4FF4A5710848FFF78FFE40F23D
:103DA00053110648FFF78AFE4FF4AE710348FFF740
:103DB00085FE00BFE80100200000045024520008E6
:103DC00000B589B019481A4B036041F63F73436050
:103DD000002383603122C26003614361FEF772FFFA
:103DE000A0B908A94FF4805341F8103D0F48FFF7E0
:103DF0007DF880B9002301930293039301A90B4836
:103E0000FFF700F960B909B05DF804FB40F2DF117B
:103E10000848FFF753FE40F2E5110648FFF74EFE53
:103E200040F2ED110348FFF749FE00BFBC0200203D
:103E3000002C01402452000800B589B018484FF00A
:103E40008043036041F63F73436000238360312267
:103E5000C2600361FEF736FF98B908A94FF480539A
:103E600041F8103D0E48FFF741F878B9002301935F
:103E7000039301A90A48FFF7C5F860B909B05DF8D6
:103E800004FB4FF400710748FFF718FE40F20621CB
:103E90000448FFF713FE40F20D210248FFF70EFE23
:103EA000F80200202452000800B59BB04348444B60
:103EB0000360002343607F228260FF22C2600361AF
:103EC00043618361C361FEF72CF900285CD10021B6
:103ED0003A48FEF774FC43F2F223984225D00023BF
:103EE0008DF854308DF855308DF85630189319935D
:103EF000012215A93148FEF789F9002849D101228C
:103F00008DF850208DF851208DF8522000238DF827
:103F1000533014A92948FEF702FA00283ED143F293
:103F2000F22200212548FEF745FC00238DF82830B9
:103F30008DF829308DF82A300B930D930E930F9343
:103F40001093119301228DF848204FF4807313933E
:103F50000AA91A48FEF75AFA28BB012300934FF426
:103F600080330193002302930393049305930693F4
:103F7000079308938023099369461048FEF716FBC0
:103F8000B0B91BB05DF804FB4FF4BB710D48FFF7EF
:103F900095FD40F283110B48FFF790FD40F28D1123
:103FA0000848FFF78BFD40F2A1110648FFF786FD98
:103FB0004FF4D9710348FFF781FD00BF980200203C
:103FC000002800402452000800B5AFB009231D931B
:103FD0004FF480331E9301232293002327931DA8BF
:103FE000FDF7DCF9002841D10F2318930223199320
:103FF00000211A911B911C9118A8FDF7B5FC00280F
:1040000038D1224B009300230A934FF0805315932D
:104010004FF40073179303230193012302930823A2
:104020000393072304930223059306934FF08073B1
:1040300007936846FDF74AFE00BB4FF40070FDF79A
:104040009DF8F8B9FDF766FD114BA3FB0030800920
:10405000FCF7BEFE0420FCF7D1FE002211464FF013
:10406000FF30FCF775FE2FB05DF804FB9D21094879
:10407000FFF724FDAB210748FFF720FDBC210548D1
:10408000FFF71CFDC3210348FFF718FD04400200A1
:10409000D34D62102452000808B5FCF7C7F9FFF7AA
:1040A00093FFFFF781FCFFF7EFFCFFF709FDFFF738
:1040B00031FDFFF781FDFFF7A1FDFFF781FEFFF75F
:1040C000BBFEFFF7F1FEFEE700B583B0214B1A6E91
:1040D00042F001021A661A6E02F001020092009A82
:1040E0009A6D42F080529A659B6D03F08053019364
:1040F000019B0320FCF71AFE002211466FF00B0013
:10410000FCF726FE002211466FF00A00FCF720FEA5
:10411000002211466FF00900FCF71AFE002211463A
:104120006FF00400FCF714FE002211466FF003004C
:10413000FCF70EFE002211466FF00100FCF708FEAE
:10414000002211464FF0FF30FCF702FE03B05DF88D
:1041500004FB00BF001002400268264B9A4200D0C8
:10416000704770B586B0044603F17043A3F5F83389
:10417000DA6C42F40052DA64DB6C03F4005300930F
:10418000009BFF2301930B2602960025039501A9AE
:104190004FF09040FCF71AFF01230193029603951C
:1041A00001A91548FCF712FF1448154B0360456040
:1041B0008560C560802303614FF4007343614FF451
:1041C000006383612023C3610562FCF72DFE60B9A3
:1041D0000A4B23659C62002211461220FCF7B8FDB1
:1041E0001220FCF7E9FD06B070BD82210548FFF7FB
:1041F00065FCEDE700000450000400485002002078
:10420000080002403452000808B502680D4B9A427B
:1042100000D008BD0C4AD2F8903043F40043C2F8F5
:104220009030002211460220FCF792FD0220FCF79C
:10423000C3FD002211462920FCF78AFD2920FCF746
:10424000BBFDE6E700280040001002400268114B69
:104250009A4200D0704700B587B003F5EC339A6DF1
:1042600042F480429A659B6D03F480430093009B67
:104270004FF420430193022302930023039303236B
:1042800004930523059301A90348FCF79FFE07B09B
:104290005DF804FB003800400004004800B585B01C
:1042A00003682F4A934208D0B3F1804F30D02D4A93
:1042B000934241D005B05DF804FB2B4B1A6E42F4DB
:1042C00000621A661B6E03F400630193019B0022D7
:1042D00011461820FCF73CFD1820FCF76DFD00226C
:1042E00011461920FCF734FD1920FCF765FD00226A
:1042F00011461A20FCF72CFD1A20FCF75DFD002268
:1043000011461B20FCF724FD1B20FCF755FDD1E7CF
:1043100003F504339A6D42F001029A659B6D03F038
:1043200001030293029B002211461C20FCF710FDA2
:104330001C20FCF741FDBDE70B4B1A6E42F4003226
:104340001A661B6E03F400330393039B002211468D
:104350001920FCF7FDFC1920FCF72EFDAAE700BF91
:10436000002C0140004401400010024002680B4B49
:104370009A4200D0704700B587B0402301930223D2
:1043800002930023039304930E23059301A9044889
:10439000FCF71CFE07B05DF804FB00BF00440140C1
:1043A000000400480268114B9A4200D0704700B5E3
:1043B00087B003F5E4339A6D42F480229A659B6DD1
:1043C00003F480230093009B4FF440630193022386
:1043D000029301230393032304930723059301A965
:1043E0000348FCF7F3FD07B05DF804FB004800400C
:1043F000000400487047FEE7FEE7FEE7FEE770476F
:104400007047704708B5FCF71DF8FCF708FD08BDBC
:1044100008B50248FEF748F908BD00BF9802002021
:1044200008B50248FCF778FD08BD00BF5002002027
:1044300008B50248FCF70EF908BD00BFE8010020EE
:1044400008B50248FEF74DFB08BD00BFBC020020C6
:1044500008B50348FEF745FB0248FEF742FB08BDDE
:10446000BC0200203403002008B50248FEF739FBE7
:1044700008BD00BFBC02002008B50248FEF731FBB2
:1044800008BD00BFBC02002008B50248FEF729FBAA
:1044900008BD00BFF802002008B50248FDF7C8FDBE
:1044A00008BD00BF9802002053B94AB9002908BFCF
:1044B00000281CBF4FF0FF314FF0FF3000F072B901
:1044C000ADF1080C6DE904CE00F006F8DDF804E06B
:1044D000DDE9022304B070472DE9F047089E044649
:1044E0008846002B4BD18A42154667D9B2FA82F230
:1044F0004AB1C2F1200701FA02F320FA07F795400A
:1045000047EA030894404FEA154E230CB8FBFEF728
:104510001FFA85FC0EFB178843EA084307FB0CF1E2
:10452000994209D9EB1807F1FF3080F01B819942BD
:1045300040F21881023F2B445B1AA4B2B3FBFEF099
:104540000EFB103344EA034400FB0CFCA44509D9DC
:104550002C1900F1FF3380F00781A44540F204815B
:1045600002382C4440EA0740A4EB0C0400271EB19B
:10457000D4400023C6E900433946BDE8F0878B42AA
:1045800009D9002E00F0EB800027C6E9000138466B
:104590003946BDE8F087B3FA83F7002F47D18B4245
:1045A00002D3824200F2FA80841A61EB03030120F5
:1045B0009846002EE0D0C6E90048DDE702B9FFDEEC
:1045C000B2FA82F2002A40F08F80491B4FEA154E62
:1045D0001FFA85F80127B1FBFEFC230C0EFB1C1112
:1045E00043EA014308FB0CF1994207D9EB180CF19F
:1045F000FF3002D2994200F2CD808446591AA3B20C
:10460000B1FBFEF00EFB101443EA044408FB00F873
:10461000A04507D92C1900F1FF3302D2A04500F2C2
:10462000B6801846A4EB080440EA0C409FE7C7F1A7
:10463000200CBB4022FA0CFE4EEA030E01FA07F4EE
:1046400020FA0CF521FA0CF34FEA1E482543B3FB80
:10465000F8F92C0C08FB19331FFA8EFA44EA0343CD
:1046600009FB0AF49C4202FA07F200FA07F10BD99F
:104670001EEB030309F1FF3080F087809C4240F27B
:104680008480A9F1020973441B1BADB2B3FBF8F09F
:1046900008FB103345EA034400FB0AFAA24508D997
:1046A0001EEB040400F1FF336BD2A24569D9023836
:1046B000744440EA0940A0FB0289A4EB0A044C457B
:1046C000C2464B4654D351D0002E69D0B1EB0A05F7
:1046D00064EB030404FA0CFCFD40FC404CEA0505C5
:1046E000C6E90054002747E7C2F1200320FA03F788
:1046F000954001FA02F021FA03F34FEA154E3843D0
:10470000010CB3FBFEF71FFA85F80EFB173341EAE5
:10471000034107FB08F38B4204FA02F407D9691836
:1047200007F1FF3C2FD28B422DD9023F2944CB1AEF
:1047300081B2B3FBFEF00EFB103341EA034100FBF4
:1047400008F38B4207D9691800F1FF3C17D28B425E
:1047500015D902382944C91A40EA07473BE73746CA
:10476000304609E70746E7E61846FBE64145ABD287
:10477000B8EB020A69EB0E0201381346A4E7604663
:10478000E9E7184695E76746D1E781467CE70238B6
:104790002C4447E7ACF1020C2B442FE7384608E7DE
:1047A0003746E9E6704700BF014B1868704700BF05
:1047B0001000002010B5431E0A44914200D110BDE4
:1047C00011F8014B03F8014FF7E730B5141E054609
:1047D0009BB0184605DA8B232B604FF0FF301BB0DF
:1047E00030BD4FF40273ADF80C3014BF04F1FF3349
:1047F0002346029305934FF6FF7300910491ADF8A1
:104800000E3002461E9B6946284600F073F8431C92
:10481000BCBF8B232B60002CE1D0009B00221A70C0
:10482000DDE7000007B5009313460A46014603483A
:104830000068FFF7CAFF03B05DF804FB100000201A
:104840002DE9F0478E689E4282460C469046994676
:1048500037D88A8912F4906F31D0256809696F1AA8
:104860006569022305EB450595FBF3F509F10103A5
:104870003B449D4238BF1D46530530D5294600F0C4
:104880006FFB064650B90C23CAF80030A38943F0E9
:104890004003A3814FF0FF30BDE8F0873A4621691D
:1048A000FFF788FFA38923F4906343F08003A3817B
:1048B000266165613E44ED1B2660A5604E464E456F
:1048C00000D94E4632464146206800F0E1FAA3681E
:1048D0009B1BA36023681E4426600020DCE72A4659
:1048E00000F098FB06460028E2D12169504600F00E
:1048F000E9FAC8E72DE9F04F9DB0804603938B8914
:104900001D060C4616460FD50B696BB9402100F009
:1049100027FB2060206128B90C23C8F800304FF035
:10492000FF30C7E0402363610023099320238DF803
:10493000293030238DF82A304FF0010B37463D46A1
:1049400015F8013B0BB1252B3ED1B7EB060A0BD076
:104950005346324621464046FFF772FF013000F0D1
:10496000A480099B534409933B78002B00F09D8061
:1049700000234FF0FF32CDE90523049307938DF810
:1049800053301A932F46052217F8011B4F4800F0A9
:104990002FFA049BD0B9D90644BF20228DF85320AA
:1049A0001A0744BF2B228DF853202A782A2A15D0C3
:1049B000079A2F4600200A25394611F8013B303B63
:1049C000092B4DD9B8B10FE02F46B8E73F4A801AFE
:1049D0000BFA00F0184304903D46D3E7039A111DEB
:1049E00012680391002A01DB079204E0524243F06F
:1049F0000203079204933B782E2B0CD17B782A2B51
:104A000033D1039B1A1D1B680392002BB8BF4FF0D4
:104A1000FF33023705932E4D39780322284600F0E4
:104A2000E7F938B14023401B03FA00F0049B03432D
:104A300001370493397827488DF8281006227E1C08
:104A400000F0D6F9002838D0234B13BB039B073363
:104A500023F0070308330393099B4B4409936DE745
:104A600005FB023201200F46A6E70023013705931C
:104A700019460A25384610F8012B303A092A03D97D
:104A8000002BC8D00591C6E705FB0121012307468D
:104A9000F0E703AB00932246104B04A94046AFF366
:104AA0000080B0F1FF3F8146D6D1A3895B063FF578
:104AB00036AF09981DB0BDE8F08F03AB00932246D6
:104AC000064B04A9404600F081F8EAE7505200087E
:104AD000565200085A5200080000000041480008E1
:104AE0002DE9F04791461F468A680B69DDF8208062
:104AF0009342B8BF1346C9F8003091F843200646E8
:104B00000C4612B10133C9F800302368990642BF40
:104B1000D9F800300233C9F80030256815F00605D1
:104B200007D104F1190AE368D9F800209B1AAB42B7
:104B300028DC94F843302268003318BF0123920622
:104B40002DD404F1430239463046C047013020D00D
:104B50002368E568D9F8002003F00603042B08BF9A
:104B6000AD1AA36822690CBF25EAE57500259342BA
:104B7000C4BF9B1AED184FF000091A344D451AD1E5
:104B8000002008E00123524639463046C047013034
:104B900003D14FF0FF30BDE8F0870135C3E7E118DE
:104BA0005A1C302081F84300224494F8451082F8C2
:104BB00043100233C5E70123224639463046C04739
:104BC0000130E6D009F10109D8E700002DE9F043F2
:104BD00001F1430C0C46097E85B06E291746064646
:104BE00098460C9A00F0B38022D8632936D00AD8B0
:104BF000002900F0B980582900F0838004F14205B3
:104C000084F8421032E0642901D06929F6D1206885
:104C10001368050603F104012AD51B681160002BF7
:104C200003DA2D225B4284F843206F480A2239E0E0
:104C3000732900F09D8008D86F2920D07029DDD11C
:104C4000236843F02003236003E0752917D07829F7
:104C5000D4D1782384F84530644855E01368191D91
:104C60001B68116004F1420584F8423001238CE096
:104C70001B68116010F0400F18BF1BB2CFE713681C
:104C80002568181D1060280601D51B6802E068061B
:104C9000FBD51B8854486F2914BF0A220822002123
:104CA00084F843106568A560002DC0F295802168E6
:104CB00021F004012160002B3DD1002D40F08E80B9
:104CC0006546082A0BD12368DB0708D5236962688B
:104CD0009A42DEBF302305F8013C05F1FF35ACEB0D
:104CE00005032361CDF800803B4603AA21463046E8
:104CF000FFF7F6FE01304DD14FF0FF3005B0BDE8B3
:104D0000F083394884F84510136821681D1D1B681D
:104D100015600A060BD5CA0744BF41F02001216087
:104D20001BB9226822F0200222601022B7E74D064C
:104D300048BF9BB2EFE76546B3FBF2F102FB1133CC
:104D4000C35C05F8013D0B460029F5D1B9E71368AE
:104D500025686169181D106028061B6801D5196057
:104D600002E06A06FBD51980002323616546B9E796
:104D70001368191D11601D6862680021284600F043
:104D800037F808B1401B606063682361002384F832
:104D90004330A7E723692A4639463046C0470130E9
:104DA000AAD023689B0713D4E068039B9842B8BF3E
:104DB0001846A3E701234A4639463046C04701302A
:104DC0009AD00135E368039A9B1AAB42F2DCEBE719
:104DD000002504F11909F5E7002BACD1037884F81C
:104DE000423004F142056CE761520008725200083B
:104DF00001F0FF01102A2BDB10F0070F08D010F88C
:104E0000013B013A8B422DD010F0070F42B3F6D18F
:104E1000F0B441EA012141EA014122F007047FF0A8
:104E200000070023F0E80256083C85EA010586EAFF
:104E3000010685FA47F5A3FA87F586FA47F6A5FA3B
:104E400087F68EB9EED1F0BC01F0FF0102F0070247
:104E500032B110F8013B013A83EA010313B1F8D1F2
:104E60000020704701387047002D06BF35460338D3
:104E7000073815F0010F07D1013015F4807F02BF0C
:104E8000013015F4C03F0130F0BC0138704700BF5D
:104E9000884210B501EB020307D8421E99420AD09E
:104EA00011F8014B02F8014FF8E78342F5D9811858
:104EB000D21AD34200D110BD13F8014D01F8014DB3
:104EC000F7E7000038B50546002945D051F8043C05
:104ED0000C1F002BB8BFE41800F0D2F81F4A13686B
:104EE000104633B9636014602846BDE8384000F0CE
:104EF000C8B8A3420CD921686218934204BF1A684B
:104F00005B68636004BF521822600460ECE71346DC
:104F10005A680AB1A242FAD919685818A0420BD1AE
:104F200020680144581882421960DDD11068526827
:104F30005A6001441960D7E702D90C232B60D3E7EC
:104F4000206821188A4204BF11685268626004BF59
:104F5000091821605C60C7E738BD00BF040100206C
:104F600070B5CD1C25F0030508350C2D38BF0C2578
:104F7000002D064601DBA94203D90C233360002033
:104F800070BD00F07DF8214A1468214691B9204C8B
:104F900023681BB9304600F063F82060294630468C
:104FA00000F05EF8431C24D10C233360304600F03F
:104FB00068F8E4E70B685B1B18D40B2B0FD90B6068
:104FC000CD50CC18304600F05CF804F10B00231DE6
:104FD00020F00700C31AD3D05A42E250D0E78C42E7
:104FE0004B6816BF636013600C46EBE70C464968DC
:104FF000CCE7C41C24F00304A04205D0211A30469B
:1050000000F02EF80130CFD02560DBE7040100204E
:1050100008010020F8B5074614460E4621B911468E
:10502000BDE8F840FFF79CBF22B9FFF74BFF2546CC
:105030002846F8BD00F026F8A0420FD22146384697
:10504000FFF78EFF05460028F2D031462246FFF7D3
:10505000B1FB31463846FFF735FFE9E73546E7E76C
:1050600038B5064C0023054608462360FEF700FBD2
:10507000431C02D1236803B12B6038BD100100200E
:105080007047704751F8043C181F002BBCBF0B58E9
:10509000C0187047537461636B206672616D653A26
:1050A0000A000000205230203D2020253038580AC8
:1050B00000000000205231203D2020253038580AC1
:1050C00000000000205232203D2020253038580AB0
:1050D00000000000205233203D2020253038580A9F
:1050E0000000000020523132203D20253038580A7F
:1050F00000000000204C52203D2020253038580A66
:1051000000000000205043203D2020253038580A60
:105110000000000020505352203D20253038580A0E
:10512000000000004653522F4641523A0A00000048
:105130002043465352203D2020253038580A000095
:105140002048465352203D2020253038580A000080
:105150002044465352203D2020253038580A000074
:105160002041465352203D2020253038580A000067
:10517000204D4D464152203D20253038580A000030
:105180002042464152203D2020253038580A000058
:105190004D6973630A000000204C522F4558435F4D
:1051A00052455455524E3D20253038580A000000D3
:1051B0005B486172644661756C745D0A00000000B2
:1051C0005B4275734661756C745D0A005B55736173
:1051D00067654661756C745D0A00000000000000A0
:1051E0000000000001020304060708090000000097
:1051F00001020304A0860100400D0300801A06008E
:1052000000350C0040420F0080841E0000093D0064
:1052100000127A000024F40000366E010048E80114
:10522000006CDC022E2E2F7372632F6D61696E2E5F
:10523000630000002E2E2F7372632F73746D333250
:105240006C3478785F68616C5F6D73702E630000FA
:10525000232D302B2000686C4C006566674546475F
:1052600000303132333435363738394142434445E2
:105270004600303132333435363738396162636451
:0352800065660060
:0852840054F2FF7F010000005D
:10528C0078563412800000200000000000093D0018
:10529C0014000020000000000000000000000000CE
:1052AC0000000000000000000000000000000000F2
:1052BC0000000000000000000000000000000000E2
:1052CC0000000000000000000000000000000000D2
:1052DC0000000000000000000000000000000000C2
:1052EC0000000000000000000000000000000000B2
:0852FC00000000003254769816
:040000050800018D61
:00000001FF
