:020000040800F2
:1000000000000120A10200082576000827760008DC
:10001000297600082B7600082D76000800000000E5
:100020000000000000000000000000002F76000823
:1000300031760008000000003376000835760008AD
:100040008D3C00088D3C0008417600088D3C00087E
:100050008D3C00088D3C00088D3C0008456A000876
:10006000656A00088D3C00088D3C00085176000848
:100070008D3C00088D3C00088D3C00088D3C00083C
:100080008D3C00088D3C0008617600088D3C00081E
:100090008D3C00088D3C00088D3C00088D3C00081C
:1000A000717600088176000899760008A976000824
:1000B000B976000800000000000000008D3C000838
:1000C0008D3C00088D3C00088D3C00088D3C0008EC
:1000D0008D3C00088D3C00088D3C00088D3C0008DC
:1000E000856A0008C97600080000000000000000D2
:1000F0000000000000000000000000000000000000
:10010000000000008D3C0008000000008D3C00084D
:1001100000000000000000008D3C00088D3C00083D
:100120008D3C00088D3C00088D3C00088D3C00088B
:100130008D3C0008000000000000000000000000EE
:100140008D3C00088D3C00088D3C00088D3C00086B
:100150008D3C00088D3C00088D3C00088D3C00085B
:100160008D3C00088D3C00088D3C0008000000001C
:100170008D3C00088D3C00088D3C0008000000000C
:100180008D3C00088D3C00088D3C000800B583B014
:1001900003F0E2FC304B314A1360314A1360314BBB
:1001A000314A32498B4204D2116819600433043257
:1001B000F7E72A4B1A682E4B9A4200D0FEE7284BED
:1001C0001A682C4B9A42F9D1234B2B4A13602B4AC5
:1001D00013602B4B02E000221A600433294A934239
:1001E000F9D3254B1B6813B9244B1B6803B1FEE7F9
:1001F00003F0BEFC694601A803F05AFC224C234BD5
:10020000E41AA4100025AC4214DC214C214BE41A62
:10021000A4100025AC4213DC0099019806F0FEFE04
:1002200005461D4C1D4BE41AA410002C0EDC28467C
:1002300003F01BFC154B53F8253098470135E2E7D6
:10024000144B53F8253098470135E3E7013C134B35
:1002500053F824309847E8E7BABADECA0000002015
:10026000FC0500200000002078F5000800060020B2
:10027000785634123254769800060020480D00203B
:10028000000600204C0D0020F4030008F4030008D1
:10029000F4030008F4030008F4030008F403000862
:1002A00008B5FFF773FF00BEFEE71EF0040F0CBF9A
:1002B000EFF30880EFF309807146414A10472DE9BA
:1002C000F04182B004468846124B5E6B9F6B9D6A7C
:1002D0001B6B13F0020F03D00E4BDB6A002B0CDB01
:1002E0000D4803F0EDFBCDF800803B463246294631
:1002F000204603F041FC00BEFEE74BF6AB6103F085
:10030000B5FC0028ECD0034B4FF00042DA6202B09B
:10031000BDE8F08100ED00E0F0B0000800BEFEE7AF
:100320001EF0040F0CBFEFF30880EFF30980714655
:10033000244A10472DE9F04182B004468846084B14
:100340005E6B9F6B9D6A074803F0BAFBCDF8008097
:100350003B4632462946204603F00EFC00BEFEE72F
:1003600000ED00E000B100081EF0040F0CBFEFF339
:100370000880EFF309807146134A10472DE9F041D8
:1003800082B004468846084B5E6B9F6B9D6A0748A7
:1003900003F096FBCDF800803B46324629462046C6
:1003A00003F0EAFB00BEFEE700ED00E00CB1000840
:1003B00000BEFEE700BEFEE700BEFEE7704700009D
:0C03C000BF020008350300087D030008A0
:1003CC0078F50008000000200006002078F50008F1
:1003DC000000001000000010000600204C0D002052
:0803EC000000001000000010E9
:1004000010B50446074B1868074BA3FB0030800962
:1004100000F0E2FE002221464FF0FF3000F09CFE8B
:10042000002010BD0C000020D34D621008B5032041
:1004300000F080FE0020FFF7E3FF06F081FF0020C0
:1004400008BD0000024A136801331360704700BF03
:10045000FC060020014B1868704700BFFC06002016
:1004600038B50446FFF7F6FF0546B4F1FF3F00D06C
:100470000134FFF7EFFF401BA042FAD338BD000064
:1004800030B583B000230193002800F0E4800446D7
:10049000836DE3B123689A6812F0005F03D09A6815
:1004A00022F000529A6023689A6812F0805F1BD194
:1004B0009A6842F080529A60684B1B68684AA2FBB7
:1004C0000323DB0C03EB83035A00019209E006F0DF
:1004D0007FFF0023E36584F85430DBE7019B013B99
:1004E0000193019B002BF9D123689A6812F0805F79
:1004F0007DD1A26D42F01002A265E26D42F00102D0
:10050000E2650120A26D12F0100F40F09D809A6804
:1005100012F0040F40F09880A26D42F00202A26532
:100520009A6802F00302012A63D04E4A936823F4CA
:100530007C1361680B439360E3694FF4005292FAB5
:10054000A2F2B2FA82F29340A26B1343E268134321
:10055000A2681343616A4FF4803292FAA2F2B2FAAF
:1005600082F201FA02F21343012947D0E26A012A1A
:1005700003D0216B09B10A4313432168CD683A4A7D
:100580002A401343CB602268936813F00C0F1FD1ED
:10059000A3694FF4804191FAA1F1B1FA81F18B4046
:1005A000656B022191FAA1F1B1FA81F105FA01F12D
:1005B0001943D36823F4804323F002030B43D36031
:1005C000E36B012B25D02268136923F0010313612B
:1005D0002369012B2FD02268136B23F00F031363C1
:1005E000A36D23F0030343F00103A36531E0002072
:1005F00088E71B6813F0010F9ED196E7A26A013AC3
:100600004FF4602191FAA1F1B1FA81F18A401343CC
:10061000ACE721680B6923F4FF6323F00503226C28
:10062000656C2A43A56C2A43E56C2A43134343F0C7
:1006300001030B61CCE721680B6B23F00F03226AE7
:10064000013A13430B63CBE7A36D43F01003A3659B
:10065000012003B030BD0120FBE700BF0C000020EB
:1006600083DE1B430003045007C0F0FF704708B54A
:10067000806AFFF7FBFF08BD7047704770B50446FE
:1006800003681D685E6815F0020F10D016F0020FA7
:100690000DD0836D13F0100F03D1836D43F400630D
:1006A0008365204600F044FD236802221A6015F09D
:1006B000040F02D016F0040F05D115F0080F3AD040
:1006C00016F0080F37D0A36D13F0100F03D1A36DF0
:1006D00043F40073A3652368DA6812F4406F24D1F1
:1006E000DA6812F4005F20D11A6812F0080F1CD0EB
:1006F0009A6812F0040F10D15A6822F00C025A6066
:10070000A36D23F48073A365A36D13F4805F0CD1F4
:10071000A36D43F00103A36507E0A36D43F010034D
:10072000A365E36D43F00103E365204606F03CF961
:1007300023680C221A6015F0200F02D016F0200F4B
:1007400005D115F0400F43D016F0400F40D0A36DF7
:1007500013F0100F03D1A36D43F40053A365236876
:100760001A6812F0400F2DD0D968D868DA6C12F0F0
:10077000C00F27D111F4001F24D1494A824314D05D
:100780009A6812F0080F15D15A6822F060025A6078
:10079000A36D23F48053A365A36D13F4807F11D15F
:1007A000A36D43F00103A3650CE0DA6812F4406F17
:1007B00008D0E5E7A36D43F01003A365E36D43F0B4
:1007C0000103E365204600F0AFFC236860221A6055
:1007D00015F0800F02D016F0800F2DD115F4807F18
:1007E00002D016F4807F32D115F4007F02D016F4C7
:1007F000007F38D115F0100F17D016F0100F14D05D
:10080000A36B23B12368DB6813F0010F0AD0A36D3B
:1008100043F48063A365E36D43F00203E365204680
:10082000FFF72BFF236810221A6015F4806F02D0A7
:1008300016F4806F23D170BDA36D43F48033A3659C
:100840002046FFF719FF236880221A60C6E7A36DD0
:1008500043F40033A365204600F068FC23684FF49E
:1008600080721A60C0E7A36D43F48023A36520461D
:1008700000F05DFC23684FF400721A60BAE7A36DC4
:1008800043F48043A365E36D43F00803E365236805
:100890004FF480621A60204600F047FCCBE700BFAF
:1008A0000020000208B5806A836D13F0500F30D12C
:1008B000836D43F40073836503681A6812F0080FB0
:1008C00014D0DA6812F4406F20D1DB6813F4005FB3
:1008D0001CD1836D23F480738365836D13F4805F73
:1008E00014D1836D43F0010383650FE0DB6813F0DF
:1008F000020F0BD1836D23F480738365836D13F432
:10090000805F03D1836D43F00103836506F04CF8EB
:1009100008BD836D13F0100FFAD0FFF7AEFEF7E7B6
:1009200008B5806A836D43F040038365C36D43F06F
:100930000403C365FFF7A1FE08BD0000F0B482B058
:100940000022019290F85420012A00F03F820346D1
:10095000012280F854200268906810F0040F40F0E3
:100960002482486804284ED8166B4FF4F86494FA31
:10097000A4F5B5FA85F505FB00F51F2707FA05F57F
:1009800026EA05060D6894FAA4F4B4FA84F404FB8C
:1009900000F005FA00F0304310631A68906810F018
:1009A0000C0F40F0AE800868092840F281809669FB
:1009B000382494FAA4F5B5FA85F50A3800FB05F554
:1009C000072707FA05F526EA05068D6894FAA4F4C8
:1009D000B4FA84F404FB00F005FA00F030439061AF
:1009E00048691C68E268C2F3C102520000FA02F2D0
:1009F00008690138032800F2F280DFE810F0720085
:100A0000BD00CE00DF0009281AD8566B4FF4F864F9
:100A100094FAA4F5B5FA85F5053800FB05F51F270E
:100A200007FA05F526EA05060D6894FAA4F4B4FA67
:100A300084F404FB00F005FA00F030435063ACE7A7
:100A40000E281AD8966B4FF4F86494FAA4F5B5FA08
:100A500085F50A3800FB05F51F2707FA05F526EA94
:100A600005060D6894FAA4F4B4FA84F404FB00F0CB
:100A700005FA00F0304390638FE7D66B4FF4F864CB
:100A800094FAA4F5B5FA85F50F3800FB05F51F2794
:100A900007FA05F526EA05060D6894FAA4F4B4FAF7
:100AA00084F404FB00F005FA00F03043D06374E7EF
:100AB0005669382494FAA4F5B5FA85F505FB00F5D6
:100AC000072707FA05F526EA05068D6894FAA4F4C7
:100AD000B4FA84F404FB00F005FA00F030435061EE
:100AE0007EE7206EBA4D054008684FF0F84696FA4A
:100AF000A6F6B6FA86F6B0400243154345F0004527
:100B000025661868826802F00302012A00F0B780A7
:100B1000CA68B2F1804F00F0B980D0F8B0200D68FB
:100B20000124AC4022EA0402C0F8B0200A68112A6D
:100B300000F0ED80122A00F0F180002A40F04081A0
:100B4000A449896811F4800F40F03C8118688168DD
:100B500001F00301012900F0E880112A00F0F08083
:100B6000122A00F00F81002A40F02E819A4A90420A
:100B700000F0148100201DE1606E954D054008686D
:100B80004FF0F84696FAA6F6B6FA86F6B04002435B
:100B9000154345F000456566B3E7A06E8C4D0540F2
:100BA00008684FF0F84696FAA6F6B6FA86F6B04010
:100BB0000243154345F00045A566A2E7E06E844D6B
:100BC000054008684FF0F84696FAA6F6B6FA86F69B
:100BD000B0400243154345F00045E56691E7256EB8
:100BE00005F0F84508684FF0F84292FAA2F2B2FA1E
:100BF00082F200FA02F2954232D01D686C6E04F067
:100C0000F84408684FF0F84292FAA2F2B2FA82F27F
:100C100000FA02F2944228D01D68AC6E04F0F84449
:100C200008684FF0F84292FAA2F2B2FA82F200FAA1
:100C300002F294421ED01D68EC6E04F0F84408687D
:100C40004FF0F84292FAA2F2B2FA82F200FA02F2FD
:100C500094427FF456AFEA6E22F00042EA6650E713
:100C6000226E22F000422266C7E76A6E22F000423E
:100C70006A66D1E7AA6E22F00042AA66DBE7026844
:100C800012F0010F3FF444AF002093E0D0F8B02001
:100C90000D680124AC402243C0F8B0200A68082A3D
:100CA0001AD91E68B569382090FAA0F4B4FA84F411
:100CB000093A02FB04F4072707FA04F425EA0405BD
:100CC0008C6890FAA0F0B0FA80F000FB02F204FA0F
:100CD00002F22A43B26129E71E687569382090FA4A
:100CE000A0F4B4FA84F4013202FB04F4072707FAF3
:100CF00004F425EA04058C6890FAA0F0B0FA80F0BC
:100D000000FB02F204FA02F22A4372610EE7314953
:100D1000896811F4000F3FF419AF0BE72D4989687A
:100D200011F0807F3FF412AF07E7016811F0010F67
:100D30003FF413AF9A6D42F020029A65012039E02A
:100D4000254A904201D0002034E022498A6842F4CA
:100D500000028A60214A1268A1F14E61A1F50221C8
:100D6000A1F27D41A1FB0212D20CC2EB0212D10012
:100D7000019102E0019A013A0192019A002AF9D107
:100D8000002017E0144A904201D0002012E01149DF
:100D90008A6842F080728A6000200BE00D498A6800
:100DA00042F480028A60002004E09A6D42F0200242
:100DB0009A650120002283F8542002B0F0BC7047ED
:100DC0000020F7E70020F5E70020F3E70220F4E732
:100DD00000F0FF0300030450000004500C0000204A
:100DE00038B50268936803F00303012B0DD09168B6
:100DF0001A4B19420FD0836D43F010038365C36D06
:100E000043F00103C365012038BD136813F0010FDF
:100E1000EDD00020F8E70446936843F001039360A7
:100E2000FFF718FB054623681A6812F0010F12D16C
:100E30009A6842F001029A60FFF70CFB401B0228FF
:100E4000F1D9A36D43F01003A365E36D43F00103F3
:100E5000E3650120D8E70020D6E700BF3F0000800F
:100E600003689B6813F0040F70D190F85430012B85
:100E70006FD010B50446012380F85430FFF7B0FF5F
:100E8000034600285ED1A26D12F4805F47D0E26D68
:100E900022F00602E265A26D22F4706222F00102E5
:100EA00042F48072A265A26D22F48012A2652268CB
:100EB0001C21116021684A6822F01C024A606269A4
:100EC000082A2FD121684A6842F008024A60A26BC2
:100ED00022B921684A6842F010024A602168CA6853
:100EE00012F0007F11D0A26D22F4405242F48052E1
:100EF000A2656269082A1BD14A6822F020024A6072
:100F000021684A6842F040024A60002284F8542076
:100F100021688A6842F004028A60184610BD0022E7
:100F2000E265B8E721684A6842F004024A60CEE709
:100F30004A6822F040024A6021684A6842F0200272
:100F40004A60E2E7002284F85420E6E702231846CC
:100F500070470223FBE70000F8B50468A46814F0AA
:100F6000040F4FD190F85430012B4ED016460F4647
:100F70000446012380F85430FFF732FF054600286D
:100F80003CD1A36D13F4805F35D0E36D23F00603ED
:100F9000E365A36D23F4706323F0010343F48073CE
:100FA000A365A36D23F48013A365236D184ADA6249
:100FB000236D184A1A63236D174A5A6323681C224B
:100FC0001A602268536843F0100353602268D368A4
:100FD00043F00103D360216833463A464031206D27
:100FE00000F0C0F9002384F854302268936843F07D
:100FF0000403936007E00023E365CAE7002384F855
:10100000543000E002252846F8BD0225FBE700BF6A
:10101000A50800086F0600082109000838B5026815
:10102000936803F00303012B01D0002038BD13683F
:1010300013F0010F2FD0936803F00D03012B09D09B
:10104000836D43F010038365C36D43F00103C365F3
:101050000120EBE70446936843F0020393600368C2
:1010600003221A60FFF7F6F9054623689B6813F020
:10107000010F0ED0FFF7EEF9401B0228F5D9A36D42
:1010800043F01003A365E36D43F00103E365012022
:10109000CCE70020CAE70020C8E770B590F85430CC
:1010A000012B3FD00D460446012380F85430FFF752
:1010B000B5FF064668BBA36D23F4885323F00203F3
:1010C00043F00203A3652368996821F080410D4332
:1010D0009D602268936843F0004393600023226878
:1010E0009268002A0EDA0133B3F57A4FF7D3A36D75
:1010F00023F0120343F01003A365002384F8543057
:1011000001260DE0A36D23F0030343F00103A36563
:1011100003E0A36D43F01003A365002384F854306B
:10112000304670BD0226FBE7704770477047704736
:1011300070470000074AD36823F4E0631B041B0CCC
:10114000000200F4E060184340F0BF6040F400305B
:10115000D060704700ED00E030B4174BDB68C3F39C
:101160000223C3F10704042C28BF04241D1D062DEF
:1011700018D9033B4FF0FF3505FA04F421EA0401C6
:10118000994005FA03F322EA0303194300280BDB15
:101190000901C9B200F1604000F5614080F8001318
:1011A00030BC70470023E5E700F00F000901C9B229
:1011B000024B1954F4E700BF00ED00E014ED00E02D
:1011C00000F01F02400901239340024A42F82030F8
:1011D000704700BF00E100E00138B0F1807F0AD223
:1011E000064B5860064AF02182F8231000209860D0
:1011F00007221A6070470120704700BF10E000E02E
:1012000000ED00E000F01F02400901239340603030
:10121000014A42F82030704700E100E0042805D080
:10122000054A136823F0040313607047024A1368E9
:1012300043F004031360704710E000E0704708B506
:10124000FFF7FCFF08BD70B4466C056C0124B44088
:101250006C60046863608368102B05D00368996034
:101260000368DA6070BC704703689A600368D960ED
:10127000F8E70000002864D010B403460168324A41
:10128000914244D8314A0A443149A1FB0212120961
:10129000920042642F4A0264022283F825201868D3
:1012A000016821F47F5121F030019A68DC68224303
:1012B0001C6922435C6922439C692243DC69224306
:1012C0001C6A22430A4302609A68B2F5804F11D02B
:1012D000196C204A914225D01F4A11685C6C0F207E
:1012E000A04021EA00011160116858685C6CA040C0
:1012F000014311600020D862186358639863D86373
:10130000012283F8252083F8240010BC7047134A7B
:101310000A440F49A1FB0212120992004264104ACA
:101320000264B9E7A83211685C6C0F20A04021EA82
:1013300000011160116858685C6CA04001431160A5
:10134000D8E70120704700BF07040240F8FFFDBF47
:10135000CDCCCCCC00000240A8040240F8FBFDBF7D
:101360000004024038B590F82440012C33D0012409
:1013700080F8244090F82540E4B2012C04D00023EA
:1013800080F82430022038BD0446022084F825006D
:101390000020E0632568286820F0010028602046CE
:1013A000FFF751FF236B5BB12268136843F00E0314
:1013B00013602268136843F0010313600020E2E722
:1013C0002268136823F0040313602268136843F053
:1013D0000A031360EDE70220D5E738B5036C1A68FD
:1013E00004682568416C04238B40134213D015F028
:1013F000040F10D0236813F0200F03D1236823F0CB
:1014000004032360416C026C04238B405360036B24
:1014100003B1984738BD02238B4013421AD015F010
:10142000020F17D0236813F0200F06D1236823F092
:101430000A032360012380F82530416C026C0223EB
:101440008B405360002380F82430C36A002BE1D026
:101450009847DFE7082303FA01F11142DAD015F0CB
:10146000080FD7D0236823F00E032360426C016C71
:10147000012303FA02F24A60C36380F82530002397
:1014800080F82430436B002BC4D09847C2E700009B
:10149000F0B482B0002336E0042400E00024B4401D
:1014A0003C4302355B4E46F825405B4C2568D443EF
:1014B00004EA05064F6817F4803F01D042EA0506AA
:1014C000554D2E606D6804EA05064F6817F4003F1D
:1014D00001D042EA0506504D6E60AD6804EA05068B
:1014E0004F6817F4801F01D042EA05064A4DAE60EE
:1014F000ED682C404E6816F4001F01D042EA050446
:10150000454AD46001330A6832FA03F47ED00124DC
:101510009C402240F6D04D68022D01D0122D10D1F2
:10152000DE08083650F826C003F00705AF000F2587
:10153000BD402CEA050C0D69BD4045EA0C0540F89C
:10154000265006685F000325BD40ED4305EA060C02
:101550004E6806F00306BE4046EA0C0606604E687A
:1015600006F1FF3CBCF1010F03D9112E01D0122E60
:1015700010D1866805EA060CCE68BE4046EA0C0625
:101580008660466826EA04044E68C6F300169E404C
:1015900026434660C46825408C68BC402C43C46028
:1015A0004C6814F0805FADD01C4C256E45F00105F1
:1015B0002566246E04F001040194019C9D08AE1C74
:1015C000144C54F8267003F00304A6000F24B44012
:1015D00027EA0407B0F1904F3FF460AF104CA042EF
:1015E0000ED004F58064A0420CD004F58064A042C3
:1015F0000AD004F58064A0423FF44EAF07244EE7C2
:1016000001244CE702244AE7032448E702B0F0BC77
:10161000704700BF0000014000040140001002407C
:10162000000400480369194201D1002070470120DD
:1016300070470AB981627047816170477047000046
:1016400008B5054B5B69034200D108BD024B5861E8
:10165000FFF7F4FFF9E700BF00040140024B1868F0
:1016600000F4C060704700BF00700040B0F5007F1C
:101670000FD0204B1B6803F4C063B3F5806F37D0E5
:101680001C4A136823F4C06343F480631360002092
:101690007047184B1B6803F4C063B3F5007F25D077
:1016A000144A136823F4C06343F400731360124BAD
:1016B0001B6802F1467202F55B3202F28322A2FB42
:1016C00003239A0C322303FB02F300E0013B23B116
:1016D000084A526912F4806FF8D1064B5B6913F423
:1016E000806F01D1002070470320704700207047B1
:1016F00000207047007000400C00002030B583B01F
:101700000546204B9B6D13F0805F0BD0FFF7A6FFC3
:10171000B0F5007F17D0802D1FD82DD0702D2DD083
:1017200000211BE0174CA36D43F08053A365A36D0C
:1017300003F080530193019BFFF790FFA36D23F00B
:101740008053A365E4E7802D03D9A02D03D902219E
:1017500004E0002102E0012100E003210A4A1368AD
:1017600023F007030B431360136803F007038B4256
:1017700006D0012003B030BD0221EFE70121EDE7E3
:101780000020F7E700100240002002403B4B9B681E
:1017900013F00C0F1AD0394B9B6803F00C030C2B81
:1017A0000ED0364B9B6803F00C03042B2FD0334B29
:1017B0009B6803F00C03082B2CD00020014618E096
:1017C0002E4BDB6803F00303012BEAD12B4B1B6884
:1017D00013F0080F14D1294BD3F89430C3F303232B
:1017E000274A52F82310254B9B6813F00C0F0CD09E
:1017F0000020224A936803F00C030C2B0DD0704795
:101800001E4B1B68C3F30313EAE70846F1E71D48C4
:101810000021EEE71C480021EBE71346D26802F0F6
:101820000302DB68C3F302130133022A0AD0032A3E
:101830001AD0B1FBF3F3114AD068C0F3062000FBC5
:1018400003F008E00F48B0FBF3F30C4AD068C0F394
:10185000062000FB03F0094BDB68C3F3416301334F
:101860005B00B0FBF3F0CAE70748B0FBF3F3034AB1
:10187000D068C0F3062000FB03F0ECE70010024044
:1018800034B100080024F40000127A0070B582B070
:101890000446036813F0100F3FD0974B9B6813F07A
:1018A0000C0F40F09280944B1B6813F0020F03D092
:1018B0008369002B00F0C082206A8F4B1B6813F0F5
:1018C000080F62D08C4B1B6803F0F003984263D979
:1018D000FFF714FF002840F0B182874B1A6842F0EE
:1018E00008021A601A6822F0F002216A0A431A609C
:1018F0005A6822F47F42E16942EA01225A60FFF706
:1019000045FF7D4B9B68C3F303137C4AD35CD840EF
:101910007B4B18600020FEF773FD236813F0010F66
:1019200000F0A180744B9B6803F00C03082B00F0BF
:101930009180714B9B6803F00C030C2B00F08380AB
:101940006368B3F5803F00F0B580B3F5A02F00F0D9
:10195000B780694B1A6822F480321A601A6822F440
:1019600080221A606368002B00F0B780FEF772FDDA
:101970000546614B1B6813F4003F74D1FEF76AFD06
:10198000401B6428F5D903205FE25B4BD3F8943009
:101990001B0903F0F00399E7574B1A6842F008025D
:1019A0001A601A6822F0F002216A0A431A605A6823
:1019B00022F47F42E16942EA01225A60206AFFF77D
:1019C0009DFE00289BD001203FE2836933B34A4A41
:1019D000136843F001031360FEF73CFD0546464BD8
:1019E0001B6813F0020F06D1FEF734FD401B0228DE
:1019F000F5D9032029E2404B1A6842F008021A6028
:101A00001A6822F0F002216A0A431A605A6822F426
:101A10007F42E16942EA01225A607EE7364A136852
:101A200023F001031360FEF715FD0546324B1B68DA
:101A300013F0020F3FF471AFFEF70CFD401B0228BC
:101A4000F4D9032001E22C4BDB6803F00303032BE2
:101A50007FF476AF284B1B6813F4003F03D0636814
:101A6000002B00F0ED81236813F0020F61D0224BB0
:101A70009B6803F00C03042B4AD01F4B9B6803F0B8
:101A80000C030C2B3ED0E368002B78D01A4A136865
:101A900043F480731360FEF7DDFC0546164B1B68AC
:101AA00013F4806F62D1FEF7D5FC401B0228F5D9F4
:101AB0000320CAE1104A136843F48033136051E7EE
:101AC00003F18043A3F53C331A6842F480221A6084
:101AD0001A6842F480321A6044E7FEF7BBFC054600
:101AE000054B1B6813F4003FBDD0FEF7B3FC401B51
:101AF0006428F5D90320A8E1001002401CB10008B9
:101B00000C000020B14BDB6803F00303022BBAD1B9
:101B1000AE4B1B6813F4806F03D0E368002B00F01A
:101B20009181AA4A536823F0F853216943EA01637B
:101B30005360236813F0080F4CD063699BB3A34A2A
:101B4000D2F8943043F00103C2F89430FEF782FCDF
:101B500005469E4BD3F8943013F0020F3AD1FEF7AE
:101B600079FC401B0228F4D903206EE1974A5368A0
:101B700023F0F853216943EA01635360D9E7934A9C
:101B8000136823F480731360FEF764FC05468F4BE3
:101B90001B6813F4806FCCD0FEF75CFC401B02285E
:101BA000F5D9032051E1894AD2F8943023F001039A
:101BB000C2F89430FEF74EFC0546844BD3F89430BF
:101BC00013F0020F06D0FEF745FC401B0228F4D9A3
:101BD00003203AE1236813F0040F7AD07B4B9B6D0E
:101BE00013F0805F36D1794B9A6D42F080529A653E
:101BF0009B6D03F080530193019B0125744B1B687F
:101C000013F4807F28D0A368012B39D0052B3FD057
:101C10006E4BD3F8902022F00102C3F89020D3F845
:101C2000902022F00402C3F89020A368002B3DD03E
:101C3000FEF710FC0646654BD3F8903013F0020F08
:101C400046D1FEF707FC801B41F288339842F2D957
:101C50000320FAE00025D1E75D4A136843F480735E
:101C60001360FEF7F7FB0646594B1B6813F4807FA1
:101C7000C9D1FEF7EFFB801B0228F5D90320E4E071
:101C8000524AD2F8903043F00103C2F89030CCE7CA
:101C90004E4BD3F8902042F00402C3F89020D3F8C2
:101CA000902042F00102C3F89020BEE7FEF7D2FB7D
:101CB0000646464BD3F8903013F0020F08D0FEF7DB
:101CC000C9FB801B41F288339842F2D90320BCE063
:101CD000E5B9236813F0200F35D0636AE3B13B4ABE
:101CE000D2F8983043F00103C2F89830FEF7B2FB07
:101CF0000546364BD3F8983013F0020F23D1FEF788
:101D0000A9FB401B0228F4D903209EE02F4A936DC3
:101D100023F080539365DCE72C4AD2F8983023F007
:101D20000103C2F89830FEF795FB0546274BD3F820
:101D3000983013F0020F06D0FEF78CFB401B0228F0
:101D4000F4D9032081E0A36A002B7DD01F4A92685A
:101D500002F00C020C2A7AD0022B23D01B4B1A68FB
:101D600022F080721A601B6813F0006F04D1174ACA
:101D7000D36823F00303D360144AD36823F0887335
:101D800023F48033D360FEF765FB04460F4B1B68DA
:101D900013F0007F4ED0FEF75DFB001B0228F5D943
:101DA000032052E0094A136823F080731360FEF7A2
:101DB00051FB0546054B1B6813F0007F0AD0FEF768
:101DC00049FB401B0228F5D903203EE000100240E9
:101DD00000700040236B5A1E636B1B0243EA021320
:101DE000E26A1343E26B5208013A43EA4253226C1F
:101DF0005208013A43EA4263A26B43EAC263154ABE
:101E0000D360136843F080731360D36843F080732A
:101E1000D360FEF71FFB04460E4B1B6813F0007FD8
:101E200006D1FEF717FB001B0228F5D903200CE0B2
:101E300000200AE0002008E0012006E0012004E084
:101E4000012002E0012000E0002002B070BD01206E
:101E5000FBE700BF00100240664B1B6803F007035E
:101E60008B420CD2634A136823F007030B431360C1
:101E7000136803F007038B4201D00120704770B54F
:101E8000036813F0020F06D05B4A936823F0F00357
:101E90008468234393600C460546036813F0010FE2
:101EA0006CD04368022B0AD0032B2DD0002B32D1EB
:101EB000514A126812F0020F07D1012097E04E4AF2
:101EC000126812F4003F00F093804B498A6822F0B8
:101ED000030213438B60FEF7BDFA06466B68022BC4
:101EE00020D0032B2DD0002B3AD0434B9B6803F01E
:101EF0000C03042B42D0FEF7ADFA801B41F288336D
:101F00009842F2D9032072E03B4A126812F0007F37
:101F1000DBD101206BE0384A126812F4806FD4D113
:101F2000012064E0344B9B6803F00C03082B25D0A0
:101F3000FEF790FA801B41F288339842F2D90320D1
:101F400055E02D4B9B6803F00C030C2B16D0FEF7CD
:101F500081FA801B41F288339842F2D9032046E08F
:101F6000254B9B6813F00C0F08D0FEF773FA801B0B
:101F700041F288339842F3D9032038E01D4B1B68A7
:101F800003F00703A3420CD91A4A136823F007038E
:101F900023431360136803F00703A34201D0012019
:101FA00025E02B6813F0040F06D0134A936823F43E
:101FB000E063E9680B4393602B6813F0080F07D0C8
:101FC0000D4A936823F46053296943EAC10393607F
:101FD000FFF7DCFB084B9B68C3F30313074AD35C92
:101FE000D840074B18600020FEF70AFA002070BDA9
:101FF0000120FCE700200240001002401CB1000854
:102000000C000020014B1868704700BF0C00002036
:1020100008B5FFF7F7FF044B9B68C3F30223034A9D
:10202000D35CD84008BD00BF001002402CB10008AE
:1020300008B5FFF7E7FF044B9B68C3F3C223034ACD
:10204000D35CD84008BD00BF001002402CB100088E
:10205000F8B5594BDB6813F0030F18D0564BDB680B
:1020600003F003030268934202D001252846F8BD1D
:10207000002A00F09F80504BDB68C3F3021301334A
:102080004268934201D00125F0E700251AE0036879
:10209000022B58D0032B5DD0012B01D001250FE07E
:1020A000454A126812F0020F60D0434DEA6822F0F0
:1020B00073024468013C43EA04131343EB600025B8
:1020C000002DD3D10F4604463B4A136823F08063AA
:1020D0001360FEF7BFF90646374B1B6813F0006F1D
:1020E00005D0FEF7B7F9801B0228F5D90325002D8E
:1020F000BCD1002F3CD130490B6923F0784323F445
:10210000FE43A068E268D20642EA002213430B6154
:10211000294A136843F080631360FEF79BF9064673
:10212000254B1B6813F0006F05D1FEF793F9801B58
:102130000228F5D90325002D98D11F4A1369A169FA
:102140000B43136192E71C4A126812F4806FACD102
:102150000125B5E7184A126812F4003FA5D1164AC6
:10216000126812F4802FA0D10125A9E70125A7E765
:10217000012F0FD01048026922F0C06222F4FE4203
:10218000A16863695B08013B5B0643EA01231343D3
:102190000361BDE70848026922F4C00222F4FE424E
:1021A000A16823695B08013B5B0543EA01231343F4
:1021B0000361ADE7012559E7001002402DE9F04128
:1021C00082B00446036813F4006F26D0436CB3F565
:1021D000000F06D0B3F5400F1DD09BB10126374646
:1021E0001DE0BD4AD36843F48033D3600027BA4A68
:1021F000D2F8883023F44003616C0B43C2F8883076
:1022000000260CE000210430FFF722FF07460028DB
:10221000EDD0064603E00027E9E7002637462368AD
:1022200013F4003F6BD0AC4B9B6D13F0805F4CD12F
:10223000A94B9A6D42F080529A659B6D03F08053D2
:102240000193019B4FF00108A44A136843F4807383
:102250001360FEF7FFF80546A04B1B6813F4807F60
:1022600005D1FEF7F7F8401B0228F5D90327002F08
:1022700040D1994BD3F8903013F4407315D0E26DF0
:102280009A4212D0944AD2F8903023F44073D2F894
:10229000901041F48031C2F89010D2F8901021F4DF
:1022A0008031C2F89010C2F8903013F0010F0FD1B6
:1022B000002F40F0F780884AD2F8903023F4407322
:1022C000E16D0B43C2F8903015E04FF00008BBE71A
:1022D000FEF7C0F80546804BD3F8903013F0020F9C
:1022E000E6D1FEF7B7F8401B41F288339842F2D9A5
:1022F0000327DDE73E46B8F1000F40F0D5802368A4
:1023000013F0010F08D0744AD2F8883023F0030389
:10231000216A0B43C2F88830236813F0020F08D0FB
:102320006D4AD2F8883023F00C03616A0B43C2F87F
:102330008830236813F0040F08D0674AD2F8883039
:1023400023F03003A16A0B43C2F88830236813F0EE
:10235000200F08D0604AD2F8883023F44063E16A45
:102360000B43C2F88830236813F4007F08D05A4A20
:10237000D2F8883023F44023E16B0B43C2F8883055
:10238000236813F4806F08D0534AD2F8883023F4BE
:102390004013216C0B43C2F88830236813F0400FC0
:1023A00008D04D4AD2F8883023F44053216B0B43B8
:1023B000C2F88830236813F0800F08D0464AD2F85C
:1023C000883023F44043616B0B43C2F888302368A4
:1023D00013F4807F08D0404AD2F8883023F4403389
:1023E000A16B0B43C2F88830236813F4005F0FD051
:1023F000394AD2F8883023F04063A16C0B43C2F80D
:102400008830A36CB3F1006F54D0B3F1806F56D015
:10241000236813F4002F0FD02F4AD2F8883023F00E
:102420004063E16C0B43C2F88830E36CB3F1006F9A
:102430004DD0B3F1806F53D0236813F4802F0FD0A9
:10244000254AD2F8883023F04063216D0B43C2F84F
:102450008830236DB3F1006F4AD0B3F1806F4CD058
:10246000236813F4804F0CD01B4AD2F8883023F035
:102470004053616D0B43C2F88830636DB3F1805FE8
:1024800043D0236813F4004F08D0134AD2F88830A1
:1024900023F08043A16D0B43C2F88830304602B070
:1024A000BDE8F0813E4626E70B4A936D23F080534A
:1024B000936524E7D36843F48013D360A8E7012130
:1024C000201DFFF7C5FD0028A2D00646A0E7D3686F
:1024D00043F48013D360AFE7001002400070004067
:1024E0000121201DFFF7B4FD0028A5D00646A3E773
:1024F000D36843F48013D360B2E70121201DFFF7B6
:10250000A7FD0028ACD00646AAE70221201DFFF750
:102510009FFD0028B5D00646B3E700BF7047000016
:1025200010B504461E4B4FF480225A612AE0DA6847
:10253000D2B262F4C072DA602046FFF7EFFF18E013
:10254000DA68D2B262F42072DA60204600F0B4FB9E
:1025500018E09A6812F4005F1ED0DA6812F4007F67
:102560001AD09A6812F4805F03D0DA6812F4807F80
:10257000DDD123689A6812F4005F03D0DA6812F4A0
:10258000007FDDD123689A6812F4805FE1D0DA68B9
:1025900012F4807FE5D1DCE7012384F8213010BDFF
:1025A0000004014038B504460268D36823F0A00354
:1025B000D360FDF74FFF05462368DB6813F0200F5B
:1025C00007D1FDF747FF401BB0F57A7FF4D9032010
:1025D00000E0002038BD38B50368DA6812F0400F1B
:1025E00001D0002038BD04464FF0FF32DA60FDF71D
:1025F00031FF05462368DB6813F0400F07D1FDF774
:1026000029FF401BB0F57A7FF4D90320EAE70020C8
:10261000E8E738B5002864D0044690F82130002B54
:1026200044D0022384F821302368CA225A622368E6
:1026300053225A622046FFF7CEFF054600283AD1C2
:102640002268936823F4E00323F040039360216839
:102650008A68636820690343A069034313438B605E
:102660002368E2681A6122681369A16843EA01439A
:1026700013612268D36823F08003D36023689B68CA
:1026800013F0200F20D02268D36C23F00303D3640F
:102690002168CB6CE269606902431343CB64236811
:1026A000FF225A62012384F821300BE080F82030A9
:1026B00004F0E6FEB5E72368FF225A62042384F89B
:1026C00021300125284638BD2046FFF76BFF002842
:1026D000D9D02368FF225A62042384F821300125CF
:1026E000F0E70125EEE7002302E001330A38C0B22B
:1026F0000928FAD81B01DBB218437047F8B590F8E7
:102700002030012B00F081800D460446012380F823
:102710002030022380F82130002A48D103689B68CA
:1027200013F0400F01D10023CB702878FFF7DBFFB7
:1027300006046878FFF7D7FF46EA0026A878FFF777
:10274000D2FF3043EE7840EA06462368CA225A6236
:10275000236853225A622046FFF73DFF07460028B0
:1027600037D1236806F07F3626F0FE461E602268C9
:10277000936823F48023936021688B68EA68286952
:10278000024313438B602268D36823F08003D36035
:1027900023689B6813F0200F27D02368FF225A621A
:1027A000012384F82130002384F820301BE00368E3
:1027B0009B6813F0400F01D10023CB702B78687811
:1027C000000240EA0340AB781843EE7840EA064640
:1027D000BBE72368FF225A62042384F821300023D8
:1027E00084F8203001273846F8BD2046FFF7DAFE8E
:1027F0000028D2D02368FF225A62042384F82130B3
:10280000002384F820300127EDE70227EBE770B5BD
:1028100090F82030012B6ED0012380F82030022365
:1028200080F821303AB94B7813F0100F03D003F041
:10283000EF030A334B700E460446002A34D1C878A1
:10284000FFF751FF05047078FFF74DFF45EA0025BB
:10285000B078FFF748FF2843357840EA45352368CC
:10286000CA225A62236853225A622046FFF7B3FEF7
:10287000064620BB236825F07F4525F0C0055D6036
:102880002268D36823F08003D36023689B6813F029
:10289000200F20D02368FF225A62012384F82130C0
:1028A000002384F8203014E048788D78CB7800023B
:1028B00040EA034028430D7840EA4535CFE72368D6
:1028C000FF225A62042384F82130002384F8203048
:1028D0000126304670BD2046FFF764FE0028D9D09F
:1028E0002368FF225A62042384F82130002384F8ED
:1028F00020300126EDE70226EBE70000F8B590F85E
:102900002030012B00F0C6800D460446012380F8DC
:102910002030022380F82130002A50D103689B68C0
:1029200013F0400F01D10023CB70EE692878FFF738
:10293000DAFE07046878FFF7D6FE47EA0027A87892
:10294000FFF7D1FE0743E87847EA004795F82000F3
:10295000FFF7C9FE47EA006006436B691E436F68D4
:10296000AB691F432368CA225A62236853225A6202
:102970006B6AB3F5807F3CD02268936823F40073C0
:1029800093602268D368DBB263F42073D360FDF7F1
:1029900061FD05462368DA6812F0020F5AD1FDF78F
:1029A00059FD401BB0F57A7FF4D92368FF225A62A3
:1029B000032084F82100002384F8203069E00368B4
:1029C0009B6813F0400F01D10023CB70EA6929788E
:1029D0006B781B0243EA0143A9780B43E97843EA89
:1029E000014395F8201043EA016313436E691E43C7
:1029F000B5E72268936823F4807393602268D368F4
:102A0000DBB263F4C073D360FDF724FD0546236891
:102A1000DA6812F0010F0FD1FDF71CFD401BB0F575
:102A20007A7FF4D92368FF225A62032084F82100B8
:102A3000002384F820302CE0DE6123685F64226884
:102A4000936843F4807393602268936843F48053DF
:102A500093600CE01E6223689F642268936843F4CD
:102A6000007393602268936843F4005393600A4BA9
:102A70001A6842F480221A609A6842F480229A60AE
:102A80002368FF225A62012384F82130002084F851
:102A90002000F8BD0220FCE70004014090F820303F
:102AA000012B6FD030B4012380F82030022380F84E
:102AB00021308B6813B10B685B008B60CB68B3B1BE
:102AC0000023CB600B6813F0010F02D04FF40032EB
:102AD000CA6013F0080F03D0CA6842F48012CA60BB
:102AE00013F0200F03D0CB6843F40003CB600B69D5
:102AF000B3B100230B610B6813F0010F02D04FF448
:102B000080220A6113F0080F03D00A6942F4001210
:102B10000A6113F0200F03D00B6943F080730B613F
:102B20000A684B6813438C682343CC6823430C69C1
:102B300023434C6923438C692343CC6923430C6AA8
:102B40002343496A0B430568296C42EA42020E4C52
:102B5000144321EA0401296401680A6C13430B64DD
:102B60000A4B1A6842F400221A609A6842F4002262
:102B70009A60012380F82130002380F82030184625
:102B800030BC70470220704784FFFF010004014001
:102B9000704770477047704710B504463D4B4FF47F
:102BA00000225A6156E02046FFF7F2FF2268D36800
:102BB000DBB263F40863D36031E0D368DBB263F463
:102BC0000253D3602046FFF7E4FF31E0D368DBB265
:102BD00063F48143D3602046FFF7DCFF31E0D36824
:102BE000DBB243F07F4343F47F0343F4FE4343F0FF
:102BF0007F03D3602046FFF7CEFF2BE0196C264AF7
:102C00000A40002A41D0DA6812F4004F3DD09A6899
:102C100012F4004F03D0DB6813F4006FC3D12268B5
:102C2000116C1E4B0B401BB1D36813F4005FC4D171
:102C30002268116C1A4B0B401BB1D36813F4804F00
:102C4000C4D12268116C144B0B401BB1D36813F430
:102C5000004FC4D123689A6812F4004F03D0DA6899
:102C600012F4006FD3D1196C0C4A0A401AB1DA6819
:102C700012F4005FCBD1196C094A0A40002ABDD07A
:102C8000DA6812F4804FC2D1B8E7012384F821300A
:102C900010BD00BF0004014004004000040001001A
:102CA000040008000368503343F82120704703688C
:102CB000503353F8210070477047F8B505460F466A
:102CC00016461C4639E02CB1FDF7C4FB069BC01A22
:102CD000A04232D32A68536823F0E00353606B6844
:102CE000B3F5827F0BD0AB6AB3F5005F14D001233C
:102CF00085F85D30002385F85C30032025E0AB6863
:102D0000B3F5004F02D0B3F5806FECD12A68136899
:102D100023F040031360E6E72A68136823F40053A6
:102D200013602A68136843F400531360DFE701233C
:102D3000B34209D0B4F1FF3FC5D12B689B6837EA95
:102D40000303F4D00023F3E70020F8BDF0B583B00F
:102D500007460C4615461E4602E0B6F1FF3F10D16D
:102D60003A6893682340AB423FD0B4F5C06FF4D1CA
:102D7000002DF2D1137BDBB28DF807309DF80730C0
:102D8000EBE72EB1FDF766FB089BC01AB042E7D314
:102D90003A68536823F0E00353607B68B3F5827FA1
:102DA0000BD0BB6AB3F5005F14D0012387F85D3008
:102DB000002387F85C30032018E0BB68B3F5004FB0
:102DC00002D0B3F5806FECD13A68136823F040036A
:102DD0001360E6E73A68136823F4005313603A6817
:102DE000136843F400531360DFE7002003B0F0BD25
:102DF00070B582B004460D46164600920B4600227E
:102E00004FF4C051FFF7A2FFB8B900962B4600223D
:102E100080212046FFF751FFB8B900962B460022CB
:102E20004FF4C0612046FFF791FF034650B1236E77
:102E300043F020032366032304E0236E43F02003C2
:102E400023660323184602B070BD236E43F02003AF
:102E500023660323F6E7002853D010B50446002369
:102E6000836290F85D30002B40D0022384F85D30FF
:102E70002268136823F040031360E368B3F5E06F42
:102E800039D90022B3F5706F04D0B3F5E06F01D0EB
:102E90000021A162216B21B9B3F5E06F2ED9022385
:102EA00023636368A1680B4321690B4361690B438A
:102EB000A16901F400710B43E1690B43216A0B43E3
:102EC000A06A216803430B60638B03F00403616A0B
:102ED0000B43616B0B43E1680B43216813434B6069
:102EE00000202066012384F85D3010BD80F85C303E
:102EF00004F0E8FAB9E74FF48052C3E701232363F3
:102F0000CFE7012070472DE9F04182B01E4690F8CE
:102F10005C30012B00F0D68004460D46904601231C
:102F200080F85C30FDF796FA074694F85D30DBB226
:102F3000012B09D00220012384F85D30002384F89E
:102F40005C3002B0BDE8F081002D00F0B180B8F136
:102F5000000F00F0AF80032384F85D300023236668
:102F6000A563A4F83C80A4F83E802364A4F8443010
:102F7000A4F846302365E364A368B3F5004F1BD083
:102F800023681A6812F0400F03D11A6842F0400219
:102F90001A60E368B3F5E06F31D963681BB1E38F62
:102FA0009BB2012B13D1236835F8022BDA60E38F33
:102FB000013B9BB2E3870AE02268136843F4804335
:102FC0001360DDE7002E77D0B6F1FF3F10D1E38F1D
:102FD0009BB2002B57D023689A6812F0020FF1D0F1
:102FE00035F8022BDA60E38F013B9BB2E387EEE713
:102FF000FDF730FAC01BB042E9D303209BE76368BA
:103000001BB1E38F9BB2012B22D1E38F9BB2012B2B
:1030100008D9236835F8022BDA60E38F023B9BB2B4
:10302000E38715E023682A781A73E38F013B9BB28C
:10303000E38701350CE02A781A73E38F013B9BB2DA
:10304000E387013504E0002E38D0B6F1FF3F13D1FD
:10305000E38F9BB2BBB123689A6812F0020FF2D0E3
:10306000E28F92B2012AE6D935F8022BDA60E38FBB
:10307000023B9BB2E387EBE7FDF7ECF9C01BB042E4
:10308000E6D3032057E73A4631462046FFF7B0FE25
:1030900008B120232366A36833B901932368DA6853
:1030A00001929B680193019B236E4BB9002042E77C
:1030B000012040E701203EE703203CE703203AE7F8
:1030C000012038E702203CE790F85D00704710B41B
:1030D000036A046A24F001040462846924F0F004A1
:1030E00044EA021223F00A030B438261036210BC1C
:1030F000704710B4036A23F0100303628469036A03
:1031000024F4704444EA023223F0A00343EA01139A
:103110008261036210BC7047836823F0700341F042
:1031200007011943816070470268D36843F00103C7
:10313000D3600268136843F00103136000207047F6
:10314000704770477047704710B5044603681A69A6
:1031500012F0020F11D0DA6812F0020F0DD06FF0EA
:1031600002021A610123037603689B6913F0030FBF
:1031700070D0FFF7E6FF0023237623681A6912F068
:10318000040F12D0DA6812F0040F0ED06FF00402B0
:103190001A610223237623689B6913F4407F5FD072
:1031A0002046FFF7CEFF0023237623681A6912F02A
:1031B000080F12D0DA6812F0080F0ED06FF0080274
:1031C0001A61042323762368DB6913F0030F4ED0C2
:1031D0002046FFF7B6FF0023237623681A6912F012
:1031E000100F12D0DA6812F0100F0ED06FF010022C
:1031F0001A61082323762368DB6913F4407F3DD0EE
:103200002046FFF79EFF0023237623681A6912F0F9
:10321000010F03D0DA6812F0010F36D123681A6962
:1032200012F0800F03D0DA6812F0800F34D12368D7
:103230001A6912F0400F03D0DA6812F0400F32D151
:1032400023681A6912F0200F03D0DA6812F0200FF9
:1032500030D110BDFFF774FF2046FFF773FF8AE7F8
:103260002046FFF76DFF2046FFF76CFF9BE72046E7
:10327000FFF766FF2046FFF765FFACE72046FFF744
:103280005FFF2046FFF75EFFBDE76FF001021A61A6
:10329000204603F009FCC1E76FF080021A61204666
:1032A00000F01DF9C3E76FF040021A612046FFF7F6
:1032B0004AFFC5E76FF020021A61204600F00EF9C0
:1032C000C7E700000368184A904202D0B0F1804F6F
:1032D00003D123F070034A681343134A90420AD083
:1032E000B0F1804F07D002F5A052904203D002F512
:1032F0008062904203D123F44073CA681343036091
:103300008B68C3620B688362074B984207D003F552
:10331000A053984203D003F58063984201D10B6912
:103320000363012343617047002C0140A8B110B52D
:10333000044690F839305BB1022384F83930211DFE
:103340002068FFF7BFFF012384F83930002010BD4B
:1033500080F8383004F0DEF8EEE70120704710B452
:10336000846824F47F4442EA03230B4323438360AD
:1033700010BC704790F83830012B00F0828010B5F7
:103380000446012380F83830022380F8393002687F
:1033900090683D4B034093600B68402B5DD010D983
:1033A000702B40D01FD8502B4DD0602B34D1CA6821
:1033B00049682068FFF79DFE60212068FFF7ACFE9A
:1033C0002AE0102B53D008D9202B55D0302B23D1F5
:1033D00030212068FFF7A0FE1EE0EBB90021206835
:1033E000FFF79AFE18E0B3F5805F0ED0B3F5005FEB
:1033F00012D1CB684A6889682068FFF7B0FF22685D
:10340000936843F48043936006E02268936823F452
:10341000803323F007039360012384F839300020C0
:1034200084F8380010BDCB684A6889682068FFF7C7
:1034300096FF2268936823F4803323F0770343F0E8
:1034400077039360E8E7CA6849682068FFF73FFEA2
:1034500050212068FFF760FEDEE7CA6849682068EF
:10346000FFF735FE40212068FFF756FED4E7102114
:103470002068FFF751FECFE720212068FFF74CFEC0
:10348000CAE70220704700BF8800FEFF90F838307E
:10349000012B1FD030B4012380F838300268536804
:1034A00095680D4CA24210D023F070030C682343A2
:1034B00025F08004896821435360036899600023E4
:1034C00080F83830184630BC704723F470034C68DD
:1034D0002343E9E702207047002C01407047704702
:1034E0002DE9F04804460168836802691343426984
:1034F0001343C26913430868A04A024013430B6098
:103500002268536823F44053E1680B435360A16978
:1035100022689B4B9A4201D0236A1943936823F493
:1035200030630B4393602368964A93421FD0964AB8
:10353000934230D0954A934246D0914A934259D013
:1035400010258F4A934276D0E269B2F5004F00F021
:10355000EE80082D00F28681DFE815F042014E0171
:103560005A0184016601840184018401720102F51B
:103570005842D2F8882002F00302032A09D8DFE873
:1035800002F0020452060125DBE70425D9E70825ED
:10359000D7E71025D5E702F5E632D2F8882002F009
:1035A0000C020C2A0ED8DFE802F0070D0D0D090DF4
:1035B0000D0D400D0D0D0B000025C2E70425C0E7E1
:1035C0000825BEE71025BCE702F5E432D2F88820D2
:1035D00002F03002102A09D005D9202A27D0302A3B
:1035E00006D10825ADE71AB90025AAE70425A8E702
:1035F0001025A6E702F5C832D2F8882002F440620E
:10360000B2F5806F0BD007D9B2F5006F11D0B2F5CB
:10361000406F06D1082594E71AB9002591E70425E3
:103620008FE710258DE702258BE7022589E7022524
:1036300087E7022585E7082D00F20C81DFE815F009
:103640000C000A0116000A0112000A010A010A010F
:1036500009004FF400430AE0FEF7DAFC034633B9F1
:1036600000207EE0FEF792F80346F8E7484B6268D8
:1036700002EB4201994200F2EF80B3EB023F00F20D
:10368000ED80082D51D8DFE805F00550205030506E
:1036900050504300FEF7BCFC0025070E060262688E
:1036A00050082B4616EB000B47F1000C58466146BC
:1036B00005F016FA03462846A3F54071354A9142B3
:1036C00000F2CE802268D3604BE0560800252B46DE
:1036D000DFF8C4B04FF0000C1BEB06004CF100010A
:1036E00005F0FEF903462846E6E7FEF74FF8002509
:1036F000070E0602626850082B4616EB000B47F1D6
:10370000000C5846614605F0EBF903462846D3E71E
:103710005008002700252B4610F5000047F1000156
:1037200005F0DEF903462846C6E70120C4E7082D68
:1037300053D8DFE805F0051833523E525252490083
:10374000FEF766FC61684B0803EB4002B2FBF1F246
:1037500092B2002022F00F03C2F342021A43236800
:10376000DA60BDE8F088FEF763FC61684B0803EBA4
:103770004002B2FBF1F292B20020EBE7F369FFEFF7
:1037800000800040003801400044004000480040F4
:103790000024F400FFFC0F00000024F463685A08C2
:1037A00002F1F47202F59042B2FBF3F292B2002001
:1037B000D0E7FDF7EBFF61684B0803EB4002B2FB7B
:1037C000F1F292B20020C5E763685A0802F5803230
:1037D000B2FBF3F292B20020BCE701200022B9E76D
:1037E000FEF716FC636800EB5300B0FBF3F02368B0
:1037F00080B2D8600020B4E7FEF71AFC636800EBE3
:103800005300B0FBF3F0236880B2D8600020A8E733
:1038100061684A0802F5740202F51052B2FBF1F237
:1038200092B2DA6000209CE7FDF7B0FF636800EB1E
:103830005300B0FBF3F0236880B2D860002090E71B
:1038400061684A0802F50042B2FBF1F292B2DA6016
:10385000002086E7012084E7012082E7012080E73D
:1038600001207EE701207CE7436A13F0010F06D0B8
:103870000268536823F40033816A0B435360436A40
:1038800013F0020F06D00268536823F48033C16A34
:103890000B435360436A13F0040F06D00268536869
:1038A00023F48023016B0B435360436A13F0080F2A
:1038B00006D00268536823F40043416B0B43536006
:1038C000436A13F0100F06D00268936823F4805304
:1038D000816B0B439360436A13F0200F06D002689C
:1038E000936823F40053C16B0B439360436A13F056
:1038F000400F0AD00268536823F48013016C0B4315
:103900005360036CB3F5801F0BD0436A13F0800F34
:1039100006D00268536823F40023816C0B43536084
:1039200070470268536823F4C003416C0B43536033
:10393000EBE72DE9F04105460F4616469846069CF2
:103940002B68DB6937EA03030CBF01230023B34272
:103950001DD1B4F1FF3FF3D02CB1FCF77BFDA0EB00
:103960000800A042ECD92A68136823F4D0731360CE
:103970002A68936823F001039360202385F8693057
:1039800085F86A30002385F86830032000E00020C5
:10399000BDE8F08130B583B004460023C366FCF770
:1039A00059FD054623681B6813F0080F0ED12368E4
:1039B0001B6813F0040F17D1202384F8693084F8B2
:1039C0006A30002084F8680003B030BD6FF07E4399
:1039D0000093034600224FF400112046FFF7A9FF91
:1039E0000028E4D00320EFE76FF07E4300932B46DE
:1039F00000224FF480012046FFF79BFF0028DBD018
:103A00000320E1E778B310B5044690F869300BB3B2
:103A1000242384F869302268136823F001031360BB
:103A20002046FFF75DFD012813D0636ABBB9226809
:103A3000536823F4904353602268936823F02A0369
:103A400093602268136843F0010313602046FFF778
:103A5000A1FF10BD80F8683003F0BCFDD8E7204618
:103A6000FFF702FFE3E701207047FEE708B50346D2
:103A70000C4A12685AB10B4A1068033323F003034F
:103A80000344094A934206D8064A136008BD054A12
:103A900006491160EFE705F0A3F90C2303604FF02E
:103AA000FF30F3E70406002000FC00204C0D00204E
:103AB00001230360014B0B60704700BF040000202E
:103AC0000FB400B583B004AB53F8042B01938021ED
:103AD000064805F037FE002803DD0146034800F0E4
:103AE00037F803B05DF804EB04B070470C06002013
:103AF0002DE9F04385B004460F4643560BB10E4600
:103B00001EE0042528462146ABBE0446384605B0D3
:103B1000BDE8F08314F9011B04AA1A4402F8101C32
:103B20000133AB42F6D304AA1344002203F8102C4D
:103B30004FF00408E94640464946ABBE8046761B36
:103B4000002EE3D03546102E28BF10250023E8E7CD
:103B500008B5FFF7CDFF08BD08B500F099F8024A97
:103B6000024B9A6008BD00BF0000000800ED00E0B5
:103B700008B500F0ABF808BDF8B504460D46174689
:103B80001E462748FFF79CFF21682648FFF798FF4D
:103B900061682548FFF794FFA1682448FFF790FF6C
:103BA000E1682348FFF78CFF21692248FFF788FF6F
:103BB00061692148FFF784FFA1692048FFF780FF72
:103BC000E1691F48FFF77CFF1E48FFF779FF294690
:103BD0001D48FFF775FF1D4CE16A1D48FFF770FF98
:103BE000216B1C48FFF76CFFE16B1B48FFF768FF78
:103BF00015F0800F0AD115F4004F0CD11748FFF7CC
:103C00005FFF06991648FFF75BFFF8BD3946154878
:103C1000FFF756FFEFE731461348FFF751FFEDE797
:103C2000D4AF0008E4AF0008F4AF000804B0000807
:103C300014B0000824B0000834B0000844B00008F4
:103C400054B0000864B0000870B0000800ED00E057
:103C500080B0000890B00008A0B00008D0B0000804
:103C6000D8B00008B0B00008C0B0000883691A8856
:103C70008A4201D0002070470268033A012A03D823
:103C8000023383610120704700207047FEE7000087
:103C90000C4B1A6842F001021A60002199601A6800
:103CA00022F0A85222F410221A604FF48052DA60F7
:103CB0001A6822F480221A609961034B4FF0006267
:103CC0009A6070470010024000ED00E02F4B1B6827
:103CD00013F0080F16D12D4BD3F89430C3F3032300
:103CE0002B4A52F82310294A936803F00C030C2B3B
:103CF00048D8DFE803F00C474747194747471D47B7
:103D000047472100214B1B68C3F30313E8E7214B0E
:103D100019601E4B9B68C3F303131F4AD15C1D4AF5
:103D20001368CB40136070471A4B1C4A1A60F0E7C7
:103D3000184B1B4A1A60ECE7144BDA6802F00302D6
:103D4000DB68C3F302130133022A04D0032A15D01F
:103D5000B1FBF3F302E0114AB2FBF3F30B49CA687B
:103D6000C2F3062203FB02F3CA68C2F341620132C6
:103D70005200B3FBF2F3074A1360CAE7084AB2FBEA
:103D8000F3F3EBE7034B1960C3E700BF00100240F9
:103D900034B100080C0000201CB100080024F4001D
:103DA00000127A0008B5FCF75BFB08BD08B50120DE
:103DB000FCF756FB08BD08B50120FCF751FB08BD18
:103DC00000B583B018468DF807200139062907D8B9
:103DD000DFE801F0040A1B062C3B3B00FFF7EBFF7A
:103DE000012003B05DF804FBFFF7E5FF9DF8073005
:103DF00033B900211C4800F0CFFDFFF7D7FFEFE7F4
:103E00000121194800F0C8FDF7E7FFF7CFFF9DF843
:103E1000073033B90121154800F0BEFDFFF7C6FF9A
:103E2000DEE70021114800F0B7FDF7E70323012288
:103E30000DF107010E48FFF766F80D48FFF744F94A
:103E40000128FAD1FFF7B2FFCAE703239DF8072044
:103E500001460748FFF757F80548FFF735F90128ED
:103E6000FAD1FFF7A3FFBBE73C0A0020300A00208D
:103E7000B00A00202DE9F04182B080460D46174679
:103E80001C46089E0CE016F8013B009300233A46BE
:103E90002946404600F0B7FB013CE4B20835EDB2DC
:103EA000002CF0D102B0BDE8F0812DE9F04383B0E1
:103EB0008146884615461F469DF828400B9EDB002C
:103EC000009403F0F80300F013F860B90DE00096D9
:103ED0003B462A4641464846FFF7CCFF3E44013563
:103EE000EDB2013CE4B2002CF1D103B0BDE8F083A7
:103EF00070B49DF80C401444E4B2013CE4B290F874
:103F0000495090F84B60964205D3A54207D9A2428A
:103F100005D800201CE0A54219D8A2421AD90B44AA
:103F2000DBB2013BDBB290F8482090F84A008842AF
:103F300005D39A4210D9994210D9012008E09A423B
:103F40000ED8994201D8002002E0012000E00020B4
:103F500070BC70470020FBE70120F9E70020F7E77D
:103F60000020F5E710B58C6800230121A04710BDA3
:103F700010B58C6800230321A04710BD10B58C68D4
:103F800000231A460421A04710BD10B58C680023F9
:103F900001220421A04710BD10B58C680023022126
:103FA000A04710BD10B58C6800230521A04710BDA7
:103FB00010B58C680621A04710BD2DE9F0410746D9
:103FC00088461546002607E0224641463846FFF758
:103FD000E9FF002850D001352C781EB9FF2CF3D111
:103FE0000126F8E7FF2C10D0FE2C46D0EF2C3FD84E
:103FF000DF2C13D8CF2C19D8BF2C1FD8BD2C39D803
:1040000014F0800F2FD00026E5E7224641463846BF
:10401000FFF7C8FF064680B30026DCE704F00F0276
:1040200041463846FFF7B8FF0026D4E704F00F02F8
:1040300041463846FFF79CFF0026CCE7414638460C
:10404000FFF79CFF2401E4B2023404F0FE04204692
:10405000FFF7A8FE41463846FFF797FF2046FFF7D7
:10406000A1FE0026B7E72046FFF79CFE0026B2E738
:104070000026B0E70026AEE706463046BDE8F081F0
:10408000012070472DE9F04105460C461F460F2AD6
:1040900037D01646152A14D00A2A09D03B46324694
:1040A0002146284600F0C0FB03461846BDE8F081D3
:1040B0000222FFF757FF204A21462846FFF77DFFDF
:1040C000ECE7D1F804801D4AFFF777FF98F8042049
:1040D00042F0B00221462846FFF764FF0122214644
:1040E0002846FFF759FF22462946404600F03DFB8F
:1040F00003460028D9D0002221462846FFF738FF82
:10410000CCE70122FFF734FF002221462846FFF7C3
:1041100043FF812221462846FFF744FF3A78920860
:1041200021462846FFF73EFF002221462846FFF79A
:104130001FFF0123B9E700BF6CB1000864B100089C
:10414000405C70474218435C507800EB032080B21B
:10415000704708B50021FFF7F3FF08BD08B5FFF76A
:10416000F8FF18B1022801D0032008BD0620FCE7A3
:1041700010B50C46FFF7F2FF204410BD38B50446D9
:104180000D468068FFF7E5FF98B1022811D02B7823
:1041900003F00F02023AA2771B0963776B7803F0F2
:1041A0000F0284F820201B09E377AB781B092377E3
:1041B00038BD2B78E3776B7884F8203095F903309D
:1041C000237795F90430637795F90530A377EFE706
:1041D00000230377C37780F82030437783777047D5
:1041E0000020704708B50621FFF7ACFF08BD08B5F1
:1041F0000821FFF7A7FF08BD08B50A21FFF7A0FFB8
:1042000008BD08B50B21FFF79BFF08BD2DE9F0475E
:1042100082460F4685682846FFF79BFF04462846DE
:10422000FFF79CFF8146012C12D04FF0FF08284673
:10423000FFF7E2FF04462846FFF7E3FF064628465D
:10424000FFF7D5FF602F06D928B1054461240CE0A3
:104250004FF00F08EBE72846FFF7C4FF402F03D9C4
:1042600010B10544412400E01135BE4208D3B442E8
:1042700010D95046FFF7ACFF00252846BDE8F0876F
:104280005046FFF7A5FF0025F7E70135B442F0D00F
:104290000134E4B22B78FF2BF7D0BC4205D0AB78C9
:1042A00003EA08034B441D44F0E729465046FFF754
:1042B00065FFE2E72DE9F04F85B080460D461446D4
:1042C0001946FFF7A3FF002848D00146D8F8080098
:1042D000FFF74EFF074698F81F9098F820B098F81F
:1042E0001D102944C9B2039198F81E60A61BF6B2AE
:1042F000013EF6B2A6EB0B06F6B20136F6B2CDF8E9
:1043000000B04B4632464046FFF7F2FD30B109F1AE
:104310000709C9F3C4094FF0000A17E098F91C0017
:104320001DE017F8013B0093002332462946404622
:1043300000F069F90835EDB20134E4B24C45F0D330
:104340000136F6B20AF1010A5FFA8AFADA4502D2B8
:10435000039D0024F2E798F91C0000E0002005B05E
:10436000BDE8F08F2DE9F04180460C4617461E4609
:10437000436A98470744FFB200250BE0DBB23A4698
:1043800021464046FFF796FFC0B20444E4B205441C
:10439000EDB2013696F90030002BEFD12846BDE88A
:1043A000F0810000014B4362704700BFE14100080B
:1043B0002DE9F04F83B0019017461E469DF830401E
:1043C000994225D9A1EB03085FFA88F8A74224D9BE
:1043D000A7EB04095FFA89F9C84523D34B46C146C8
:1043E0009846234634461E463B460F4619464FF034
:1043F000000AA74205D833460E46194623463C46D6
:104400001F4649F347058E420FD24FF0010B1CE0C7
:10441000A3EB01085FFA88F8D8E7A4EB07095FFA75
:1044200089F9D9E74FF0010AE3E74FF0FF3B0CE0D1
:1044300022463146019800F0DFF8A5EB0805EBB203
:104440005DB2002D0CDB0134E4B2A7420FD3BAF108
:10445000000FEDD132462146019800F0CDF8ECE78F
:1044600056FA8BF6F6B203EB09056DB2EBE703B033
:10447000BDE8F08F10B50C68A04710BD38B50446F4
:104480000D46436C0220984700230A222946204605
:10449000FFF7F0FF0546636C03209847636C00202C
:1044A0009847284638BD38B504460D46436C02206F
:1044B0009847636C01209847002314222946204620
:1044C000FFF7D8FF04F14803172229462046FFF7DB
:1044D000D1FF636C0020984738BD70B504460D4687
:1044E000436C02209847636C0120984700231522F3
:1044F00029462046FFF7BEFF064620B9636C002020
:104500009847304670BD04F14803172229462046DB
:10451000FFF7B0FFF2E710B580F82D2080F82E30BD
:1045200000F12D033222FFF7A5FF10BD10B580F872
:104530002D2080F82E309DF8083080F830309DF81E
:104540000C3080F82F3000F12D033B22FFF792FF53
:1045500010BD00B583B00DF107034622FFF78AFFB7
:104560009DF8070003B05DF804FB00B583B00DF1C2
:1045700007034722FFF77EFF9DF8070003B05DF8B1
:1045800004FB08B500234822FFF774FF08BD10B5EF
:1045900004464168FFF7DDFF207061682046FFF7A1
:1045A000E4FF607061682046FFF7EBFFE07404F100
:1045B0004803172261682046FFF75CFF10BD10B565
:1045C00004464168FFF75AFF034608B9184610BD74
:1045D0002046FFF7DCFF0123F8E708B54168FFF745
:1045E00062FF08BD10B50446836903B1984761684E
:1045F0002046FFF772FF10BD08B513460A46416812
:10460000FFF789FF08BD30B583B044689DF81850A6
:104610000195009313460A462146FFF787FF03B032
:1046200030BD80F83110704710B504460023836018
:10463000C36043740122027422228274836105E004
:10464000E218FF2182F834100133DBB20D2BF7D9C9
:1046500001212046FFF7E5FF2046FFF7A3FE0123D7
:1046600084F82830002384F8293084F82A30402246
:1046700084F82B2084F82C30014B636410BD00BFFC
:10468000D948000870B504460D461646FFF7CCFF22
:10469000002305E0E218FE2182F834100133DBB27A
:1046A0000D2BF7D96560AE602046FFF788FF70BD1F
:1046B000002282700378013BC37002717047027858
:1046C00083781344DBB2837041788B420CD2037938
:1046D00001330371C3781A44D2B2914201D84A1E01
:1046E000D2B2C270012070470020704783684079C1
:1046F00018445A1C0021197013469042F9D1704792
:1047000010B4C3788B4234BF0023012384789142D4
:1047100094BF0021012143EA010094428CBF002094
:1047200000F001000B40184310BC704700230B70D1
:1047300083784B704379013B8B70C378CB707047A3
:1047400008B54B78CA78012A03D0032A08D01A4644
:1047500002E003F10802D2B21946FFF7D1FF08BD0B
:10476000A3F108011A46CBB2F6E710B50C46114684
:10477000836842792046FFF71BFC10BD10B48468A3
:104780008078101A00F0070001228240D2B22BB9C3
:10479000635C23EA0202625410BC7047635C1A43F4
:1047A0006254F9E74A7883789A420DD3C3789A42E3
:1047B0000AD810B50C7843799C4200D310BD0B7910
:1047C0002146FFF7DBFFF9E770472DE9F04180460E
:1047D0000D468C78CB78032B03D8DFE803F00E0569
:1047E000080B0026374615E00126002712E00026B8
:1047F000FF270FE0FF2600270CE00026012709E035
:104800002B783B442B706B7833446B70640014F04E
:10481000FF0407D014F0800FF2D029464046FFF77E
:10482000C1FFEDE7BDE8F08138B51D464C68143A8C
:10483000332A4ED8DFE802F02D354D3F4D4D4D4D1A
:104840004D4D4D4D4D4D4D4D4D4D4D4D4D4D4D4D98
:104850004D4D4D4D4D4D274D4D4D4D4D4D4D4D1AE1
:104860004D4D4D4D4D4D4D4D4D4D454929462046E3
:10487000FFF766FF08B901232CE029462046FFF721
:10488000A4FF012326E029462046FFF78BFF0123E2
:1048900020E02046FFF72AFF2046FFF709FF01230B
:1048A00018E02046FFF70BFF034698B12046FFF7BC
:1048B0001DFF01230EE029462046FFF737FF0123A5
:1048C00008E063792B70012304E063782B700123E7
:1048D00000E00123184638BD70478161704730B44D
:1048E00000244C6100250D604D608D60CD600C741E
:1048F0008A610B77234603E0C456CA185477013304
:10490000042BF9DD30BC7047F8B50446084603F0C7
:10491000A3FE4FF0665103F0F7FE03F08FFA1CA3DD
:10492000D3E9002303F0E2FA06460F46A06903F03C
:1049300085FA02460B463046394603F0D7FA03F0B3
:1049400085FD05462060237C012B07D00023636191
:10495000012323746060A060E060F8BD63690133E7
:104960006361E16803F0C8FD4FF07C5103F0CCFEB9
:10497000E060A168284604F083F800B1A560616892
:10498000284604F05FF80028E7D06560E5E700BF3F
:104990006666666666660A4008B50378012B06D12E
:1049A0000A4601894068FCF744FE002008BD4FF02C
:1049B000FF30FBE7426003810170704700B585B0AE
:1049C00004AB03E90700BDF80C100298FCF72AFEBF
:1049D00005B05DF804FB0023036003727047037A9F
:1049E0006BB1036819440160A1F13303B3F56D7F26
:1049F00009D9B1F57A7F01D30323037270470123EC
:104A0000037201607047022303727047F8B50746CE
:104A10000E4614461D4604F033F800B93E462146C2
:104A2000304604F02DF800B934462946204604F0FB
:104A300027F808B12846F8BD2546FBE7F8B5044637
:104A40000D46104603F008FE114903F011FF11490D
:104A500003F00EFF0F4903F00BFF0746A669294636
:104A600003F052FE0146304603F046FDA061E669C0
:104A70000949284603F0FCFEA16803F045FE3946CB
:104A800003F042FE0146304603F036FDE061F8BD1A
:104A90000000A0410000704200007A44816070472D
:104AA00084B008B50DF1080C8CE80F000598089942
:104AB00003F020FDBDE8084004B0704784B02DE944
:104AC000F04186B00CAC84E80F006C4610AD0FCD01
:104AD0000FC495E8030084E803000CAB0FCBFFF78D
:104AE000DFFF06466C461AAD0FCD0FC495E80300F4
:104AF00084E8030016AB0FCBFFF7D2FF07466C46E6
:104B000024AD0FCD0FC495E8030084E8030020AB6B
:104B10000FCBFFF7C5FF80466C462EAD0FCD0FC4FF
:104B200095E8030084E803002AAB0FCBFFF7B8FF3A
:104B30000346424639463046FFF768FF0446074BB6
:104B40001868074903F0E0FD0146204603F090FE97
:104B500006B0BDE8F04104B0704700BF1C0700205C
:104B600000007A4408B5054903F0C4FC044903F089
:104B70007FFE4FF07E5103F0BFFC08BD66668640A5
:104B80000D0F8F3FF8B5044615461E46002302E080
:104B9000CA56E2540133052BFADD2562A660304681
:104BA000FFF7E0FF0746294603F0AEFDE06031461F
:104BB000284603F0A9FD0146384603F0A5FD206113
:104BC00067610023E361A361F8BD000038B54FF4CD
:104BD00080534FF0904201213548FFF7EBFE4FF430
:104BE00000734FF0904201213248FFF7E3FE4FF48B
:104BF00080734FF0904201212F48FFF7DBFE4FF406
:104C000080634FF0904201212C48FFF7D3FE2C4CDB
:104C10004FF48043224601212A48FFF7CBFE0823A8
:104C2000224601212848FFF7C5FE10232246012114
:104C30002648FFF7BFFE2023224601212448FFF724
:104C4000B9FE244D4FF400634FF0904201212846F5
:104C5000FFF7B0FE01212846FFF79EFE8023224683
:104C600001211D48FFF7A6FE4FF4007322460121E3
:104C70001A48FFF79FFE4FF4807322460021184820
:104C8000FFF798FE4FF400434FF090420021154883
:104C9000FFF790FE0223224600211348FFF78AFE09
:104CA0000423224600211148FFF784FE38BD00BFCF
:104CB000E8090020AC070020300A00203C0A002050
:104CC0000004004854080020180800209408002020
:104CD0004808002064090020600800204C070020DC
:104CE0004007002004070020A0080020000A002040
:104CF00010B55623214A22492248FFF7F0FD5623DA
:104D0000214A22492248FFF7EAFD5623214A224937
:104D10002248FFF7E4FD5623214A22492248FFF7A3
:104D2000DEFD4FF07E544323224620492048FFF702
:104D3000D6FD432322461F491F48FFF7D0FD5623C7
:104D40001E4A1F491F48FFF7CAFD41231E4A1F493B
:104D50001F48FFF7C4FD41231E4A1F491F48FFF7A4
:104D6000BEFD432322461E491E48FFF7B8FD5623C9
:104D700022461D491D48FFF7B2FD10BD34680640AC
:104D8000B807002080F00008548F87408807002073
:104D900084F000087D1FCB407009002088F00008D7
:104DA000CFC90441DC0700208CF000081C0900205A
:104DB00090F000084009002094F000084FEC5441A6
:104DC0002408002098F0000836D5D33F0C0A0020B4
:104DD0009CF000087CF0C13F1C070020A0F00008F8
:104DE000F8080020A4F0000858070020A8F00008E8
:104DF00070B5154D2B68154C224615491548FFF71F
:104E0000C1FE154E3068296803F074FB0346224644
:104E100012491348FFF7B6FE124D2868316803F0B7
:104E200069FB0346224610491048FFF7ABFE104BC2
:104E30001868296803F05EFB034622460D490E48B8
:104E4000FFF7A0FE70BD00BFB807002000001645A8
:104E5000ACF000086C08002088070020B0F00008C3
:104E6000D008002070090020B4F000089409002048
:104E7000DC070020B8F00008C009002008B50020B9
:104E800001F0EAFB002001F00DFC002001F0ECFB3A
:104E900008BD08B5012001F0E7FB08BD08B50120F9
:104EA00001F0E2FB08BD08B5012001F0DDFB08BD03
:104EB00008B501F067FC012806D0022807D000B130
:104EC00008BD01F0A9FCFBE701F0B8FBF8E701F031
:104ED00011FCF5E708B501F055FC012806D00228C1
:104EE00007D000B108BD01F097FCFBE701F0D0FB53
:104EF000F8E701F0CDFB002001F0D4FBF2E7000061
:104F000010B50B4C216832220A48FFF797FD216843
:104F100032220948FFF792FD216832220748FFF745
:104F20008DFD216832220648FFF788FD10BD00BFC5
:104F30001C0700206C080020D008002094090020E5
:104F4000C009002008B501210348FFF725FD012015
:104F5000FBF786FA08BD00BFE809002008B500216C
:104F60000148FFF719FD08BDE809002038B5104CCD
:104F700021681048FFF792FD0F4D2868216803F063
:104F8000B9FA01460D48FFF789FD0D4C20682968E4
:104F900003F0B0FA01460B48FFF780FD0A4B186892
:104FA000216803F0A7FA01460848FFF777FD38BDEE
:104FB000B80700206C08002088070020D0080020D7
:104FC0007009002094090020DC070020C00900209F
:104FD00008B5FFF7C3FF08BD08B501F0D9FB0428E9
:104FE00056D8DFE800F0032955505C0001F0D6FBED
:104FF00006284DD8DFE800F004080C1014181C0037
:10500000002001F049F843E0012001F045F83FE0BD
:10501000022001F041F83BE0032001F03DF837E0C9
:10502000042001F039F833E0052001F035F82FE0D5
:10503000062001F031F82BE001F0B0FB042827D85E
:10504000DFE800F003090F151B00002002F0D8F87C
:10505000FFF714FF1CE0022002F0D2F8FFF70EFF6A
:1050600016E0012002F0CCF8FFF708FF10E0032063
:1050700002F0C6F8FFF702FF0AE0042002F0C0F8D1
:10508000FFF7FCFE04E001F089FB10B1012803D01A
:1050900008BD01F0DBFBFBE701F0CEFBF8E701F018
:1050A0007DFB20B10128F3D1FFF7E8FEF0E7FFF721
:1050B0008FFFEDE708B501F065FB012806D0022857
:1050C00007D000B108BD01F0A7FBFBE701F0D4FA5F
:1050D000F8E7FFF781FFFFF7D1FEF3E710B54B4B81
:1050E00093E80700FFF76AFC48BB494C05212046BE
:1050F000FFF775FC237A032B1ED0464B93E807007D
:10510000FFF75CFC00283DD1434C05212046FFF70A
:1051100066FC237A032B32D0404B93E80700FFF75D
:105120004DFC002851D13E4C05212046FFF757FC8D
:10513000237A032B46D010BDFFF7ABFEDDE7334BE0
:1051400093E80700FFF73AFC012803D1304B1B7AA4
:10515000022B0ED02D4B93E80700FFF72FFC012800
:10516000CBD12B4B1B7A032BC7D12948FFF733FC3C
:10517000C3E7FFF79DFE2648FFF72DFCBDE7FFF7CD
:105180008DFEC9E7234B93E80700FFF717FC0128C2
:1051900003D1214B1B7A022B0ED01E4B93E8070044
:1051A000FFF70CFC0128B7D11B4B1B7A032BB3D1A3
:1051B0001948FFF710FCAFE7FFF77CFF1648FFF731
:1051C0000AFCA9E7FFF76FFEB5E7144B93E8070069
:1051D000FFF7F4FB012803D1114B1B7A022B0ED0F1
:1051E0000E4B93E80700FFF7E9FB0128A3D10C4B16
:1051F0001B7A032B9FD10A48FFF7EDFB9BE7FFF7D4
:1052000069FE0748FFF7E7FB95E700BF04070020AA
:10521000F4090020A00800207C070020000A0020DC
:105220000C0800200000000008B502F007FE1EA3D5
:10523000D3E9002302F084FF0022214B02F056FE46
:1052400003F004F901461F4803F012FB4FF07E51B2
:1052500003F050F901461C4803F00AFB1A4903F019
:1052600007FB02F0EBFD02F037FA03F0EFF8174905
:1052700003F0FEFA02F0E2FD0DA3D3E9002302F0F1
:105280007FFC03F0E3F801464FF07E5003F0F0FAA4
:1052900002F0D4FD08A3D3E9002302F06FFC03F071
:1052A000D5F808BDAFF300806666666666660A409C
:1052B00083DBB5DCE1796B3F66666666661271403A
:1052C0000000B04000F07F4500401C46009078454B
:1052D00008B50D4B98680D4903F0B4FB88B90C4B29
:1052E00098680A4903F0AEFB58B90A4B9868074919
:1052F00003F0A8FB28B9084B9868044903F0A2FB07
:1053000008B1FFF765FE08BD6C08002000004040B2
:10531000D008002094090020C009002008B5054BE2
:1053200018684FF0804103F0ABFB00B908BDFFF7F0
:105330004FFEFBE71C07002008B5094B1868094918
:1053400003F09EFB30B9084B1868064903F098FB40
:1053500018B908BDFFF73CFEFBE7FFF739FEF8E799
:105360001C090020000048424009002008B5044BF9
:105370001B68C82B00DC08BDFFF72AFEFBE700BF57
:10538000BC09002010B582B001212748FFF704FBBB
:10539000264C01212046FFF7FFFA0A20FBF760F8B0
:1053A00000212046FFF7F8FA0A20FBF759F80121FF
:1053B0002046FFF7F1FA0A20FBF752F81C4C1D4A71
:1053C0001D492046FFF75EF90A20FBF749F8204601
:1053D000FFF703F9164C194BA360194B01934023B7
:1053E00000931023002211462046FEF75EFD204662
:1053F000FFF7F8F80028EDD14FF47A70FBF730F89A
:1054000000210948FFF7C8FA00230E4A13800E4A0C
:1054100013700E4A13700E4A13700E4A13800E4A10
:10542000137002B010BD00BF54080020AC0700206C
:105430004C0A0020C13D000810000020FCE30008D9
:1054400028000020AC0A0020AA0A00209B0A0020A5
:105450009A0A0020980A00209C0A002070B584B0A7
:1054600006461D460A4C0292084602F0E7FCCDE9CA
:10547000000132460749204604F010F923469DF802
:105480002020E9B20448FEF76DFF04B070BD00BFF4
:10549000A00A0020B8F200084C0A002070B584B0C1
:1054A00006461D460A4C0292084602F0C7FCCDE9AA
:1054B000000132460749204604F0F0F823469DF8E3
:1054C0002020E9B20448FEF74DFF04B070BD00BFD4
:1054D000A00A0020ACF200084C0A0020F0B583B00E
:1054E000064617461D46084603F0D4FA084C0097B6
:1054F000034632460749204604F0D0F823469DF87B
:105500002020E9B20448FEF72DFF03B0F0BD00BF34
:10551000A00A0020D4F200084C0A00202DE9F04136
:1055200082B04148FFF759F83F4C404BA3604048D8
:105530000168027F0A250095002352B21D30FFF753
:105540008DFF3C480168027F4FF01408CDF80080C1
:10555000002352B21D30FFF781FF37480168027FF8
:105560001E270097002352B21D30FFF777FF334804
:105570000168027F28260096002352B21D30FFF7F3
:105580006DFF2F4B19681A7F32230093002352B20C
:105590002C48FFF763FF01F0C7FE3C230093002374
:1055A000562201462848FFF759FF01F0C3FE274B5A
:1055B0001A7FCDF80080372352B201462448FFF706
:1055C0004DFF24480168027F0095372352B21D30F9
:1055D000FFF744FF204D2868FFF726FE2A7F00973B
:1055E000372352B2014605F11D00FFF777FF1B4D2F
:1055F0002868FFF719FE2A7F0096372352B201462A
:1056000005F11D00FFF76AFF154BA360154B3A2209
:1056100039212046FEF7A6FE2046FEF7E3FF0028CC
:1056200082D102B0BDE8F0814C0A0020FCCC000819
:10563000B80700208807002070090020DC07002040
:105640001C07002070F2000874F200080C0A002009
:1056500078F20008240800201C09002040090020DE
:1056600090B100087CF200082DE9F04182B0414879
:10567000FEF7B3FF3F4C404BA3604048C168027F38
:105680000A250095002352B21D30FFF7E7FE3C4883
:10569000C168027F4FF01408CDF80080002352B299
:1056A0001D30FFF7DBFE3748C168027F1E270097D9
:1056B000002352B21D30FFF7D1FE3348C168027F8C
:1056C00028260096002352B21D30FFF7C7FE2F4B4D
:1056D000D9681A7F32230093002352B22C48FFF777
:1056E000BDFE01F021FE3C2300930023562201461B
:1056F0002848FFF7B3FE01F01DFE274B1A7FCDF8B7
:105700000080372352B201462448FFF7A7FE244801
:10571000C168027F0095372352B21D30FFF79EFE0D
:10572000204DE868FFF780FD2A7F0097372352B2AB
:10573000014605F11D00FFF7D1FE1B4DE868FFF79C
:1057400073FD2A7F0096372352B2014605F11D00F2
:10575000FFF7C4FE154BA360154B3A2239212046B2
:10576000FEF700FE2046FEF73DFF002882D102B082
:10577000BDE8F0814C0A0020FCCC0008B8070020EE
:105780008807002070090020DC0700201C0700208B
:1057900070F2000874F200080C0A002078F2000889
:1057A000240800201C0900204009002090B10008B6
:1057B0006CF200082DE9F04182B04148FEF70DFF80
:1057C0003F4C404BA36040488168027F0A2500950A
:1057D000002352B21D30FFF741FE3C488168027F32
:1057E0004FF01408CDF80080002352B21D30FFF7AF
:1057F00035FE37488168027F1E270097002352B28A
:105800001D30FFF72BFE33488168027F2826009663
:10581000002352B21D30FFF721FE2F4B99681A7FEB
:1058200032230093002352B22C48FFF717FE01F0F9
:105830007BFD3C2300930023562201462848FFF7B6
:105840000DFE01F077FD274B1A7FCDF8008037233E
:1058500052B201462448FFF701FE24488168027FC6
:105860000095372352B21D30FFF7F8FD204DA86890
:10587000FFF7DAFC2A7F0097372352B2014605F181
:105880001D00FFF72BFE1B4DA868FFF7CDFC2A7FFC
:105890000096372352B2014605F11D00FFF71EFEA8
:1058A000154BA360154B3A2239212046FEF75AFDCD
:1058B0002046FEF797FE002882D102B0BDE8F081B5
:1058C0004C0A0020FCCC0008B80700208807002004
:1058D00070090020DC0700201C07002070F200087F
:1058E00074F200080C0A002078F200082408002056
:1058F0001C0900204009002090B1000880F2000837
:105900002DE9F04182B04148FEF767FE3F4C404B25
:10591000A36040484168027F0A250095002352B2E7
:105920001D30FFF79BFD3C484168027F4FF0140893
:10593000CDF80080002352B21D30FFF78FFD3748AD
:105940004168027F1E270097002352B21D30FFF7E7
:1059500085FD33484168027F28260096002352B215
:105960001D30FFF77BFD2F4B59681A7F32230093C0
:10597000002352B22C48FFF771FD01F0D5FC3C2307
:1059800000930023562201462848FFF767FD01F0E7
:10599000D1FC274B1A7FCDF80080372352B2014645
:1059A0002448FFF75BFD24484168027F00953723B8
:1059B00052B21D30FFF752FD204D6868FFF734FCEE
:1059C0002A7F0097372352B2014605F11D00FFF7E9
:1059D00085FD1B4D6868FFF727FC2A7F009637235B
:1059E00052B2014605F11D00FFF778FD154BA3608B
:1059F000154B3A2239212046FEF7B4FC2046FEF72B
:105A0000F1FD002882D102B0BDE8F0814C0A0020EF
:105A1000FCCC0008B807002088070020700900208F
:105A2000DC0700201C07002070F2000874F2000858
:105A30000C0A002078F20008240800201C0900202D
:105A40004009002090B1000884F2000810B582B02F
:105A50001D48FEF7C2FD1C4C1C4BA3601C4B9968F3
:105A60000C230093142356221A48FFF717FD1A4BF4
:105A7000996818230093142356221848FFF70EFD47
:105A8000174B996824230093142356221548FFF7D7
:105A900005FD154B996830230093142356221348B3
:105AA000FFF7FCFC124B19681A7F3C230093142368
:105AB00052B21048FFF7F2FC2046FEF793FD002893
:105AC000C9D102B010BD00BF4C0A002008D80008A0
:105AD0006C08002080F00008D008002084F0000846
